:1000000071C200008CC200008AC2000088C20000D9
:1000100086C2000084C2000082C2000080C20000CC
:100020007EC200007CC200000C94AB2D0C94672DA6
:100030000C94B72E74C2000072C2000070C200009F
:100040006EC200006CC200006AC2000068C20000FC
:1000500066C200000C94932E62C2000060C20000D1
:100060005EC200005CC200005AC2000058C200001C
:1000700056C2000054C2000052C2000050C200002C
:100080004EC200004CC200004AC2000048C200003C
:1000900046C2000044C2000042C2000040C200004C
:1000A0003EC200003CC200003AC2000005010980C7
:1000B000A101850319012AB700150126B700950192
:1000C00075108100C0050C0901A101850419012AE0
:1000D000A002150126A002950175108100C00660DE
:1000E000FF0961A1010962150026FF00952075082E
:1000F00081020963150026FF00952075089102C052
:1001000005010906A101050719E029E715002501E8
:10011000950875018102950175088101050719008F
:1001200029FF150026FF00950675088100050819AE
:1001300001290515002501950575019102950175A7
:10014000039101C0504F52514A4D4B4E2A4C2F3013
:10015000B6B7ABACBBBCA9AABDBE0D0E0B0F1A0542
:1001600008050905071811130408120C4C4C2A52F3
:100170004C4C2A524C4C2A524C4C2A52FD377A583D
:100180005A000004E6D6B446020021011600000021
:10019000742FE5A3E000EA00995D003D8889C6540C
:1001A00036C3174FE4F4B8722C6F76E772C1F6E9E4
:1001B0007F69B5A549A3A62E51B3BA404E79B08F39
:1001C0002905AC2672E8864352E771DEA8F33FDDCD
:1001D000792F19DCCE8EA927531EC6B66EBD6B7C57
:1001E00052127E2B82C3D88E79D7DD6892C4EDB5CA
:1001F000E1B17360554A888A6CF36ED6BC427B20AD
:10020000E9B55AE4614C5BFD6BABF97C7AFB6BBCE6
:10021000AF68FEA445F7554B1CCAD7EE211B3337F8
:100220001C5E9A40CB470E01AF172168FF6A5B56F0
:100230001CCC4E00000000002E7C145B9008EF7F69
:100240000001B501EB010000A5D38EB4B1C467FB7A
:10025000020000000004595A01000100D103630D9F
:100260004E0D000002000200CD03630D4E0D000094
:1002700003000100D203630D4E0D000004000200D4
:10028000B703630D4E0D2F0605000100D303630D68
:100290004E0D000006000200B903630D4E0D000074
:1002A00007000200CF03630D4E0D00001200020094
:1002B000D503630D4E0D000013000200D703630D3C
:1002C0004E0D000014000100D903630D4E0D000017
:1002D000150000000000B3055D14000016000100C9
:1002E000D403CE0D780D000017000101D403CE0D0C
:1002F000780D000018000102D403CE0D780D000027
:1003000019000200DB03630D4E0D00001A0001030B
:10031000D403CE0D780D00001B000200DD03630D39
:100320004E0D00005F006000610054005C005D0045
:100330005E00550059005A005B00560062006300E1
:1003400058002152680069006A006B006C006D0063
:100350006E006F007000710072007300A800AA00A8
:10036000A9000100010001000100010001000100DD
:100370000100010001000100010001000100010075
:100380000100010009025B00030100A0FA0904005A
:1003900000010301010009211101000122440007AD
:1003A000058103080001090401000203000000099F
:1003B000211101000122220007058203200001070C
:1003C00005030320000109040200010300000009E5
:1003D00021110100012232000705840320000112CF
:1003E00001000200000008EDFE44210001010203AB
:1003F000011C037600690061006C003A006600365B
:100400000034006300320062003300630000001417
:10041000036B0065007900700061006400340078AF
:10042000003400000008036400650074000000044C
:1004300003090400000000000000000000000000AC
:1004400000000000000000000000000000000000AC
:10045000000000000000007E0F00D4FFFFFFC70077
:1004600000007800000000000000002A2B28000097
:100470000000000000000000000000000000290053
:100480000000002C1E3420212224342627252E365D
:100490002D3738271E1F20212223242526333336CB
:1004A0002E37381F0405060708090A0B0C0D0E0F1E
:1004B000101112131415161718191A1B1C1D2F31A1
:1004C00030232D350405060708090A0B0C0D0E0F05
:1004D000101112131415161718191A1B1C1D2F3181
:1004E00030354C0011241FBECFEFDAE0DEBFCDBFA8
:1004F00011E0A0E0B1E0E8ECFDE602C005900D924D
:10050000AC36B107D9F725E0ACE6B1E001C01D92E9
:10051000A931B207E1F70E94DE2E0C94AE3670CD01
:10052000982FE09117054091CE0459E0E41302C0E2
:1005300080E008952E2F30E05E9FF0011124E153FA
:10054000FB4F8181681306C08081981303C08581A9
:100550008111EFCFF9013196E770E8CFE091CC043B
:10056000F091CD04309739F00284F385E02D309777
:1005700011F060E209950895E8EDF0E080818E7F4A
:1005800080831092E2001092DA001092E100A0EE57
:10059000B0E08C9181608C9380818F77808319BCCF
:1005A000A7EDB0E08C918E7F8C9380818F7E8083CD
:1005B0001092B70408952091E4003091E50095E68B
:1005C000A9012091EC00822F817020FF06C080914C
:1005D000E80080FF06C080E008952091E80022FD39
:1005E0001AC08091C204882389F0853089F08091F7
:1005F000EB0085FD0FC02091E4003091E50042172B
:100600005307F9F29150E1F684E0089582E00895ED
:1006100083E0089581E008958091C40487FF13C0AA
:100620008091E80082FF06C08091E8008B7780937C
:10063000E80004C08091C2048111F2CF0895809136
:10064000C2048823D9F38091E80080FFF8CF80911D
:10065000E8008E77ECCF982F9093E900242F762F27
:1006600050E0891731F07091EC002091ED0050912D
:10067000F00021FD07C09F5F973071F78093E9007C
:1006800081E008953091EB003E7F3093EB00309194
:10069000ED003D7F3093ED003091EB003160309301
:1006A000EB007093EC002093ED005093F00020914C
:1006B000EE0027FDE0CF80E00895B0E0A0E0E3E6A3
:1006C000F3E00C94FA35C8EDD0E088818F7E888302
:1006D000E7EDF0E080818160808384E082BF81E08B
:1006E0008093B70488818E7F888302EE10E0F80142
:1006F00010821092DA0081EEC82ED12CF601108201
:1007000088818F77888388818068888388818F7DBE
:10071000888319BC1092C2041092C3041092C104C1
:100720001092C00490EEE92EF12CF70180818B7FAE
:10073000808388818160888342E060E080E08BDF95
:10074000F60180818E7F8083F801808181608083C3
:10075000808188608083F70180818E7F808388819B
:1007600080618883CDB7DEB7E8E00C941636FC01D3
:10077000CB012091CA043091CB042617370790F0A3
:10078000009729F42091E8002E772093E80040E0BC
:10079000009751F4411108C08091E80082FF31C0F8
:1007A00080E00895C901F3CF2091C2042223A9F16A
:1007B0002530A9F12091E80023FD2DC02091E8000B
:1007C00022FDEACF2091E80020FFE2CF3091F30034
:1007D0002091F200009719F02830310558F041E0DF
:1007E0002830310509F040E02091E8002E77209371
:1007F000E800CECF41914093F10001972F5F3F4F2A
:10080000E9CF8091C204882341F0853041F0809186
:10081000E80083FFC1CF81E0089582E0089583E07E
:1008200008950895089587E797E7909301088093C6
:10083000000888E19AE00FB6F894A89580936000CC
:100840000FBE90936000FFCFA4E0B0E0EAE2F4E0D6
:100850000C9400368FB7F8942091B3043091B4040F
:100860004091B5045091B60429833A834B835C834D
:100870008FBF69817A818B819C812496E2E00C9400
:100880001C362FB7F8948091B3049091B404A091D2
:10089000B504B091B6042FBF089580911301089557
:1008A000E0E7F1E09191891303C0DF0111971C92F9
:1008B00091E0E637F907B1F708959C01FC01329603
:1008C0008FEF90E04191461751F08F3F19F441119D
:1008D00001C0892F9F5F9630A9F78F3F09F40895D3
:1008E000280F311D87FD3A95F90162830895A3E031
:1008F000B0E0EDE7F4E00C9400369C018091B00488
:100900009091B10482179307B1F03093B104209312
:10091000B004E091CC04F091CD04309761F00084F4
:10092000F185E02D309739F084E089833B832A8379
:10093000CE01019609952396E2E00C941C36A3E0C3
:10094000B0E0E5EAF4E00C9400369C018091AE043E
:100950009091AF0482179307B1F03093AF042093C6
:10096000AE04E091CC04F091CD04309761F00084A6
:10097000F185E02D309739F083E089833B832A832A
:10098000CE01019609952396E2E00C941C36E09185
:10099000CC04F091CD04309739F00190F081E02D36
:1009A000309711F00995089580E00895FA01309785
:1009B00009F009950895DC0130E020E0FD01E20F27
:1009C000F31FE491E41307C0E1E0E227EA0FFB2FF5
:1009D000F11D849108952F5F3F4F261778F380E033
:1009E00008959091AB0489029001112437FF03C050
:1009F0008093AB0408952F373105E4F7890FF8CFC2
:100A0000CF92DF92EF92FF92CF93DF9300D000D08E
:100A100000D0CDB7DEB78E839D83C0909E04D0906A
:100A20009F04E090A004F090A1040EDFDC01CB0154
:100A30008C199D09AE09BF09843F9140A105B105FC
:100A400038F5C0929A04D0929B04E0929C04F092F4
:100A50009D0484EF91E0A0E0B0E080939604909331
:100A60009704A0939804B09399048E818093A50471
:100A70009D819093A60426960FB6F894DEBF0FBE14
:100A8000CDBFDF91CF91FF90EF90DF90CF90089591
:100A9000DBDE60939A0470939B0480939C04909394
:100AA0009D0482E390E0A0E0B0E0D7CFFC01848118
:100AB000862351F482818823B9F06823908593FFBF
:100AC00005C081E061110FC080E00895282F2F70CC
:100AD00082958F70282B962F9F7062956F70692B6F
:100AE00081E02613F1CF089581E0FDCFAC01309174
:100AF000900460919104232F621301C00895822F06
:100B000090E0FC01EE0FFF1FE857FB4F0190F081D2
:100B1000E02DE417F50791F467E0649FF001659F0D
:100B2000F00D1124E951FC4F41E044832313E6CF3B
:100B30000196837099278093900408950196282F39
:100B40002370DACF1092E4031092E303E7EEF3E0B0
:100B50008581811102C014821682379684E0EF31BC
:100B6000F807B1F70895B0E0A0E0E9EBF5E00C94E8
:100B7000F6354B018FEF9FEF4430510508F46AC002
:100B80004091940341FB882780F990E0880F991FDA
:100B900042FB002700F910E0000F111F000F111F8A
:100BA000802B912B40FBAA24A0F8B12CA82AB92AAB
:100BB00043FB882780F9C82FE0E0DE2F53E0CC0FFD
:100BC000DD1F5A95E1F7CA29DB2944FBAA27A0F9C2
:100BD000B0E064E0AA0FBB1F6A95E1F7AC2BBD2B18
:100BE00045FBEE27E0F9F0E075E0EE0FFF1F7A9588
:100BF000E1F7EA2BFB2B46FB222720F930E0A6E0A9
:100C0000220F331FAA95E1F72E2B3F2B47FB4427DA
:100C100040F950E05695542F442757954795242B7B
:100C2000352B80919503982F9170D92EC22ED32AFF
:100C300086958170F82EFF0CE12CCE28DF280D2C34
:100C4000000CEE08FF08F401C082D182E282F38238
:100C500090E080E0CDB7DEB7ECE00C9412368091E6
:100C6000B7039091B80390930F0180930E010895FC
:100C7000462B22FF0FC0982F9F7082958F70892B73
:100C8000962F9F7062956F70692B942F9F7042957D
:100C90004F70492B982F9623961309C050E040952A
:100CA000509590E04823592381E0452B09F080E0DE
:100CB00081700895FB01811520E2920770F48F3F47
:100CC000910551F048F0392F94FF02C03295307FE2
:100CD0002081232B2083992708959C0130522115D0
:100CE0003043C8F30895EBE0F2E090E080E06FEA73
:100CF0007CE243ED5CE227E23CE277836683518746
:100D00004087338722879787868701967096883039
:100D1000910599F7089581152CE7920741F42091E8
:100D2000940430919504232B11F490E080E0089511
:100D300080E00895F894E82FE295EF70F0E041A18B
:100D40008F7021E030E0B90102C0660F771F8A95ED
:100D5000E2F7CB01962F9095942391A392A1892B32
:100D600082A3789408959091940392FF10C041E07B
:100D7000282F2471243009F040E031E0282F287119
:100D8000283009F030E0431711F02CE0822793FF60
:100D900010C041E0282F2471243109F040E031E0F7
:100DA000282F2871283109F030E0431711F02CE08A
:100DB00082273091950330FF10C051E0282F217118
:100DC000213009F050E041E0282F2871283009F047
:100DD00040E0541711F029E0822731FF10C041E0B4
:100DE000282F2171213109F040E031E0282F2871AE
:100DF000283109F030E0431711F029E0822794FDF3
:100E0000877E0895803E9105C1F1C8F48133910534
:100E100009F47DC048F48932910509F46DC08A3225
:100E2000910509F47BC0089589339105D1F082388A
:100E30009105B9F08533910509F459C00895843EB0
:100E40009105C1F138F4823E910521F1833E91056F
:100E500031F10895863E9105C1F1873E9105E1F19A
:100E6000089520919403237009F065C020919503A3
:100E700023FF14C089E290E008952091940320FD9F
:100E800043C03091950330FF09C024FF4EC090E06D
:100E900080E008952091940322FDF7CF08952091DA
:100EA000940322FD45C03091950330FD44C024FFDA
:100EB000F5CFEDCF2091950321FFF0CF80919403E2
:100EC00084FDE5CF87EE90E008952091940323FF01
:100ED000E5CF24FDDCCFF6CF2091940323FD2EC077
:100EE0003091950331FFE3CF84EE90E00895209197
:100EF000940325FFD3CFBECF2091940325FD21C0BD
:100F00002091950323FFCACF89E390E0C7CF2091BA
:100F1000940326FFC3CF8AE290E0089520919403C2
:100F200026FFBCCF81E390E0089583EE90E0089522
:100F300082EE90E0089580EE90E0089586EE90E0D5
:100F4000089585E390E008951F93CF93DF935ADFD0
:100F5000EC018115924508F05CC0C11580E5D80709
:100F600008F0D9C0C03ED10538F5CD3CD10508F018
:100F7000ABC0C83AD10580F4C53AD10508F0A1C08C
:100F8000C130D10509F440C0CE010497813A9105E2
:100F9000D8F1D0E0C0E038C0CE01885A91094B9713
:100FA000C0F7C85AD0E0CC0FDD1FC15EDE4F0990FC
:100FB000D881C02DD46428C0C11590E4D907E0F4CD
:100FC000C11520E2D20708F0C0C0C83ED105E0F04C
:100FD000CE019A9581159F41E0F68D2FC4DE182F22
:100FE000CE0199270FDFC12FD0E0DC2FCC27CC27F3
:100FF000DF71C82BD92B08C0CE01992703DFCC277E
:10100000DF70C82BD92BD06ACE01DF91CF911F9111
:101010000895C03882E5D807B8F5C03692E5D907FB
:1010200008F05BC0C03422E5D207C8F4C03282E5C4
:10103000D80708F04BC02C2F2695269590E2299FC3
:10104000900111248C2F8370C1E0D0E002C0CC0F3E
:10105000DD1F8A95E2F7C22BD32BDD68D5CF2C2F6D
:1010600026952695277080E2289F900111248C2FC9
:101070008370C1E0D0E002C0CC0FDD1F8A95E2F79B
:10108000C22BD32BDC68C0CFC03C92E5D90760F4FB
:101090008C2F8F71C03AD245A8F5C82FD0E0DC2F35
:1010A000CC27C46FD06AB0CFCE01805C92458097C8
:1010B00008F06FCFDC2FCC27CC27DF71C06FD06A50
:1010C000A3CFA497D064A0CFD0659ECFCF71D0E03E
:1010D000DC2FCC27C16FD06A97CF2C2F2695269571
:1010E000277080E2289F900111248C2F8370C1E02B
:1010F000D0E002C0CC0FDD1F8A95E2F7C22BD32BC4
:10110000DA6882CF30DEC82FD0E0DC2FCC27CC27A6
:10111000DF71D06279CF8C2F8F7125DE55E0D695A7
:10112000C7955A95E1F7CF70D0E0DC2FCC27282F58
:1011300030E084FF06C044E0220F331F4A95E1F7F8
:101140003327C22BD32BD0695FCF8D2F8F710BDE4E
:10115000182FCE01992756DEC12FD0E0DC2FCC27E7
:10116000CC27DF71C82BD92BD4CF8091CE01882317
:1011700031F01092CE011092CD011092CC01089561
:10118000CF93C82F8091950382FF0BC08091CE0131
:101190008C1739F076DB9093CD018093CC01C0930E
:1011A000CE01CF9108959091CE01292F282359F097
:1011B000809589238093CE01882331F062DB809370
:1011C000CC019093CD01089580E090E0F8CF982F66
:1011D0009095809118058923809318050895982F7C
:1011E000909580919603892380939603089590911A
:1011F0009603982B9093960308951092A904109249
:10120000C3011092C20108958091B9039091BA036D
:10121000892B89F036DB2091CC013091CD01AC01D6
:10122000421B530B9A0181E04091B9035091BA03DC
:101230002417350708F480E0817008959091C1016A
:10124000292F282321F0809589238093C1010895B7
:10125000809117059091CE04981301C008958F5F77
:101260008770FACF9C01809196038D7999F42115AE
:1012700080E5380788F4211580E23807F8F4233335
:10128000310511F178F481E02E313105C8F42430B4
:101290003105C8F480E00895C90196558F3F910546
:1012A00041F038F02653310981E02330310558F000
:1012B000F1CFC901805F9645079760F33327DFCFF1
:1012C0002C32310539F7089581E0FDCFCF93DF93BC
:1012D000EC01DB018C81813059F514968C911497C7
:1012E000813031F5E98124E0E29FC0011124E881D9
:1012F000E80FF92FF11DE459FE4F94919A32C1F095
:101300001196EC91119784E0E89F90011124EC91E3
:10131000E20FF32FF11DE459FE4FE49181E0EA3230
:1013200019F09E1301C080E08170DF91CF91089584
:1013300081E0FBCF8091BE0190E020E0422F022EA1
:10134000000C550B481759070CF008952F5FF6CF86
:10135000943080F5843070F544E0949F900111241E
:10136000820F932F911D682F677023E096958795C4
:101370002A95E1F7FC01EE0FFF1FE80FF91FE35676
:10138000FE4F50E040E080E0219130E0062E02C0A8
:10139000369527950A94E2F721703327042E01C071
:1013A000220F0A94EAF7822B4F5F5F4F43305105BB
:1013B00059F7089580E008959430A0F5843090F5B1
:1013C00044E0949F90011124820F932F911D282FA8
:1013D000277041E001C0440F2A95EAF723E0969573
:1013E00087952A95E1F7FC01EE0FFF1FE80FF91F23
:1013F000E356FE4F30E020E070E05191DF0111979D
:10140000CB01022E02C0969587950A94E2F781706F
:1014100081958527842385278C932F5F3F4F233029
:10142000310559F708958093D90108959091D90114
:1014300021E030E0F90101C0EE0F8A95EAF7D90109
:1014400002C0AA0FBB1F6A95E2F7EA2B01C0220F68
:101450004A95EAF7892F8E23E81303C0292B822FA0
:10146000E2CF20952923FBCF21E030E001C0220FFD
:101470008A95EAF720958091D9018223D4CF909163
:10148000A904809589238093A904282F277059F4F3
:10149000891749F09091950392FF05C0869586952E
:1014A0008695E2DFAACE089521E030E001C0220F48
:1014B0008A95EAF78091D901822BB5CF0F931F93BC
:1014C000CF93DF93C82F01E010E001C0000F8A9591
:1014D000EAF7D091AA048D2F802391F48091A9047A
:1014E000869586958695C81301C087DE8C2FDCDF34
:1014F000D027D093AA04DF91CF911F910F91089527
:101500008C2FB2DFF5CF9091950392FF0EC098E03B
:10151000899F90011124622B6093A904C5DFB1D982
:101520009093C3018093C2010895BECF8093D801E8
:101530000895282F92959F70963091F060F4925FF5
:101540009F70923030F481E0203F81F030F4283EEB
:1015500030F080E008959A5FF3CF243FD1F70895EB
:1015600081E0283EE0F3213FA1F7F9CF0895982FBD
:1015700082958F7011F0982F84E0292F269526955B
:1015800011F08E5F922F969509F08F5F0895982F36
:1015900080E0911101C008952FEF290F92238F5FF2
:1015A000F8CF9C019A9581159F4150F5D901AA2742
:1015B000B170F901EE27F270B90166277470A901C4
:1015C0004427587034FF0EC080E1AB2B09F480E053
:1015D000EF2B09F08062672B09F08064452B89F0BE
:1015E0008068089581E0AB2B09F480E0EF2B09F0CF
:1015F0008260672B09F08460452B19F0886008959C
:1016000080E008950F931F93CF93DF938B01EA013E
:101610009091C204943061F58093E9008FEF90912E
:10162000E800815095FD06C095ED9A95F1F7000010
:101630008111F5CF8091E80085FF1AC00E94DB027E
:10164000811111C08091E80085FD06C08091E800FD
:101650008E778093E800F2CFF80181918F0180931B
:10166000F100219779F78091E8008E778093E80068
:10167000DF91CF911F910F910895BC0143E050E09D
:1016800084E0C0CFCF93DF93D82FC92F48E050E03C
:10169000682F792F81E0B6DF88E0ED2FFC2FA8EBD3
:1016A000B4E001900D928A95E1F7DF91CF91089512
:1016B000792F603229F440E250E0682F82E0A2CF17
:1016C00008959C012150310908F408958FE99FE0A5
:1016D0000197F1F700C00000F5CF1F93CF93DF9380
:1016E000C62F122F632F8330E0F4C430D0F444307F
:1016F000C0F428E0C29FE001112450E0440F551FC0
:10170000C40FD51F20E2829FC0011124C80FD91F2A
:10171000CE0189960E947936612FCE018A960E9469
:101720007936DF91CF911F91089585E290E00E9474
:101730005D368B3D89F486E290E00E945D368A3604
:1017400059F487E290E00E945D3691E0873B09F012
:1017500090E0892F8170089580E0FCCF462F572FAD
:10176000BC01CA018F529E4F4F3252406105710534
:1017700010F40C945D3680E008950F931F93CF937F
:10178000DF93833038F5643028F5443018F528E0CD
:10179000629FE001112450E0440F551FC40FD51F74
:1017A00030E2839FC0011124C80FD91FCE01899652
:1017B0000E945D36082F10E0102F0027CE018A9678
:1017C0000E945D369801282BC901DF91CF911F91AE
:1017D0000F91089590E080E0F8CF462F672F209179
:1017E000F5013091F601232B81F4703F39F4403F2D
:1017F00061F48091F7019091F8010895743028F414
:10180000443018F4833008F4B8CF80E090E00895B5
:10181000B0E0A0E0EEE0FCE00C94FB357C01009130
:10182000D9018091D801082BC2E0D0E010E0DC2E75
:10183000C8010C2E02C0959587950A94E2F780FDA9
:1018400009C02197A0F7D12C8D2DCDB7DEB7E7E0E9
:101850000C941736B7018C2FC0DF76DB019789F324
:10186000F3CFCF93DF93D82FC92FD2DF6D2F7C2FEB
:10187000B4DF6ADBDF91CF910895FC018481882376
:1018800051F087819085009711F05EDB52CE808108
:101890009181E7DFFBCF80E00895A6E0B0E0E3E5CB
:1018A000FCE00C94FF3549835A83392F89819A8152
:1018B000332381F0222371F0ABDF182F682F898149
:1018C0009A817ADD69817A81812F87DF2696E3E02C
:1018D0000C941B363DDD182FF5CFFC01262F878198
:1018E0009085009739F440815181628173818481B0
:1018F0009581D3CF08950F931F93CF93DF9307EB79
:1019000013E0C9E8D0E0CE010E945D36F801619194
:101910008F01681719F0CE010E9479362196C13BDC
:10192000D10589F7DF91CF911F910F9108950F9302
:101930001F93CF93DF9307EB13E0C9E8D0E0CE010C
:101940000E945D36F80181938F012196C13BD1053C
:10195000B1F7C2E6D2E0FE0185919491009711F0B3
:10196000FC0109952C96F3E0CE32DF07A1F7DF9159
:10197000CF911F910F9108954F925F926F927F9236
:10198000AF92BF92CF92DF92EF92FF920F931F938D
:10199000CF93DF93CDB7DEB760970FB6F894DEBF75
:1019A0000FBECDBF1A821982FE0133968EE0DF0191
:1019B0001D928A95E9F704E210E09FE2492E92E039
:1019C000592E612C712C21EDA22EBB24B394015011
:1019D0001109A9F460960FB6F894DEBF0FBECDBF13
:1019E000DF91CF911F910F91FF90EF90DF90CF90FB
:1019F000BF90AF907F906F905F904F90089562017D
:101A0000B1E14B165104610471042CF080E1C82E41
:101A1000D12CE12CF12CA601B501CE0101960E943A
:101A20006A36AC0CBD1C0D2C000CEE08FF084C18DF
:101A30005D086E087F08CBCF282FCB01283068F4D3
:101A40003AE0239FB00111246F547F4F4AE050E0E9
:101A50000E944D3690E080E008958FEF9FEF08954B
:101A6000AAE0B0E0E6E3FDE00C9400369C01975557
:101A70008F3F910509F068F4BE016F5F7F4F822FA1
:101A8000DBDF892B31F489859A852A96E2E00C9474
:101A90001C368091CF039091D003F7CF9C01CA01EF
:101AA000F9013296449150E08417950748F0329638
:101AB000859194910E943D361EDF90E080E008956C
:101AC0008FEF9FEF08959C01CB01BA01F901329687
:101AD000449150E06417750740F032966591749117
:101AE0000E943D3690E080E008958FEF9FEF0895CB
:101AF000A4E0B0E0EEE7FDE00C94F9357C016B0169
:101B0000CA01F7013396B49019821A821B821C8293
:101B1000892B31F48FEF9FEF2496E9E00C94153672
:101B200044E050E0BE016F5F7F4FC701CCDF97FDFF
:101B3000F1CF81E090E00B2C02C0880F991F0A942E
:101B4000E2F780959095092E000CAA0BBB0B4981FA
:101B50005A816B817C8184239523A623B723F601C8
:101B60002081022F017010E00B2C02C0000F111F0A
:101B70000A94E2F7012E000C220B330B802B912BE1
:101B8000A22BB32B89839A83AB83BC8344E050E0C0
:101B9000BE016F5F7F4FC70181DFBECFA4E0B0E021
:101BA000E4EDFDE00C94FD358B01FC013396F490DF
:101BB00019821A821B821C82452B31F48FEF9FEF12
:101BC0002496E5E00C94193644E050E0BE016F5FC6
:101BD0007F4F79DF97FDF2CF81E090E00F2C02C0BC
:101BE000880F991F0A94E2F7092E000CAA0BBB0B71
:101BF00049815A816B817C8184239523A623B72355
:101C000021E0892B8A2B8B2B09F420E0F80120831B
:101C100090E080E0D5CFA6E0B0E0E1E1FEE00C94FA
:101C2000FB3504E513E081EAE82EFF24F39498E005
:101C3000D92E46E050E0B701CE0101960E944D3604
:101C4000F8018D2D11928A95E9F7B8016C5F7F4FED
:101C500089819A812FD8F80191838083B8016B5FC5
:101C60007F4F8B819C8126D8F801938382838D815D
:101C700086838E818783F6E0EF0EF11C085F1F4F8D
:101C800081EDE81681E0F806A1F62696E7E00C94CF
:101C90001736AAE0B0E0EFE4FEE00C94F8350CED66
:101CA00012E081E5E82EFF24F39496E0B92E2BEDA7
:101CB000C22E22E0D22EAA24A3944AE050E0B7011B
:101CC000CE0101960E944D36F8013996DF018B2D29
:101CD0001D928A95E9F789819A81D80111969C9382
:101CE0008E938F8112968C9312978D8113968C937D
:101CF0001397888514968C931497898515968C93E1
:101D000015978B819C8117969C938E9316971896A6
:101D10001C9218978A8587FF3CC01E961C921E92C3
:101D20001D9780FF03C0D8011896AC9281FF04C0B4
:101D3000F80190859260908782FF07C0D8011896BD
:101D40009C911897946018969C9383FF04C0F801A7
:101D500090859860908784FF07C0D80118969C9161
:101D60001897906118969C9385FF04C0F8018085B0
:101D700080628087FAE0EF0EF11C015F1F4F81EA5D
:101D8000E81681E0F80609F098CF2A96EAE00C946C
:101D90001436F801D686C586C4CFAAE0B0E0E3EDDC
:101DA000FEE00C94FA35EBE8F2E080E5DF011D92ED
:101DB0008A95E9F7E7EEF3E088E3DF011D928A9563
:101DC000E9F78BE8C82E82E0D82E7F0101E011E010
:101DD000F701D182C0824AE050E0B801CE010196FD
:101DE0000E944D3688E0FE013196D60101900D9299
:101DF0008A95E1F789859A85D70113969C938E93EE
:101E00001297BAE0CB0ED11CE7E0EE0EF11C065F94
:101E10001F4F0135F1E01F07D9F62A96E8E00C9430
:101E20001636FC016081718184E090E00C94933659
:101E30009091950392FB222720F9281749F080FB07
:101E400092F99093950384E993E0EBDF82E017CB5E
:101E50000895A4E0B0E0EFE2FFE00C94F9351A82B7
:101E600019821C821B8285E5C82E81E0D82E10E0E5
:101E700000E0EE24E394F12CF60181916F018F3F95
:101E800009F446C0F894E82FE295EF70F0E021A144
:101E90008F70A70102C0440F551F8A95E2F7CA014F
:101EA000922F982B91A392A18095892382A3789455
:101EB00000C0E9E5F1E031E0B12C21912F3F09F4B8
:101EC00053C0A22FA295AF70B0E090968C9190E095
:101ED0002F7002C0959587952A95E2F780FD44C042
:101EE000832FB82A330F51E0ED35F50731F7F601AE
:101EF000319780818F3F11F00E949A0680EA8A957F
:101F0000F1F7E1E0F0E0EC0FFD1FE00FF11FB08210
:101F10000F5F1F4F0430110509F0AECF44E050E0D1
:101F2000BE016F5F7F4F84ED91E00E943036892BB8
:101F3000F9F089819A81AB81BC818093D40190931F
:101F4000D501A093D601B093D70181E08093D3014E
:101F50000E9441049093D2018093D10110E0812F1F
:101F60002496E9E00C94153680E0BBCF10E028C041
:101F70001091D301112391F3E090D101F090D2019F
:101F80000E9441048E199F09059740F344E050E0F8
:101F900064ED71E081EF91E00E943036892B31F3DE
:101FA0008091D4019091D501A091D601B091D70133
:101FB0008093F1019093F201A093F301B093F401A7
:101FC0001092D301CCCFCF9380919603C091180586
:101FD000C82B8091CE018823D1F08091B9039091D4
:101FE000BA03892B19F010D98111BFD88091CE0185
:101FF000C82B20E080E791E0FC013081019631118F
:102000002F5F31E086379307B9F72111AED8809161
:10201000A20480958C239091A304892B80936E0158
:1020200048E050E064EC71E08EE691E00E943036CA
:10203000892BB9F088E0EEE6F1E0A4ECB1E0019084
:102040000D928A95E1F7E091CC04F091CD043097A0
:1020500041F00280F381E02D309719F08EE691E097
:102060000995CF910895CF93DF93EC014A855B8565
:102070006E857F850E94D6048B81A9D88C81AFD8CC
:10208000A2DF86E0FE0111928A95E9F7DF91CF91F8
:102090000895CF93DF93EC018D8181FD12C08260A2
:1020A0008D83809118059B81892B809318058C81E5
:1020B0009ED889DF488559856E857F85CE010E942F
:1020C000D6041092AD041092AC048D8180FD02C044
:1020D000CE01C9DFDF91CF91089580911001877FF4
:1020E000809310018091E503811102C082E06FD8D6
:1020F0008091100184FF05C08F7E8093100182E0E3
:1021000076D88091100185FF05C08F7D80931001E6
:1021100080E26DD858CF10929603E0E7F1E086E0B8
:10212000DF011D928A95E9F790E080E00E949F040C
:1021300090E080E00E9477041092180544CFAAE254
:10214000B0E0E5EAF0E10C94FF3584EC94E0FC01AA
:1021500001962091F100208324E08C3C9207B9F78E
:102160008091C504893009F459C0C8F4823009F45B
:10217000B6C0833009F485C0813089F18091E800D0
:1021800083FF39C18091C4049091C5049A3008F04E
:1021900032C1E92FF0E0E055F94C0C94E3358A3078
:1021A00009F48CC08B3051F78091C404813231F72F
:1021B0008091C8049091C904892B01F78091E800AF
:1021C000877F8093E8000E940C0381E09091C60411
:1021D000911101C080E0809314019DDFCFCF8091E9
:1021E000C404813A59F68091E800877F8093E80023
:1021F0008091C8049091C904892B61F468E088EB50
:1022000094E070E00E94B7038091E8008B778093A0
:10221000E800B4CF60E090E080E0F3CF8091C404A8
:10222000813209F0ABCF8091C8049091C9048D7FB1
:10223000892B09F0A3CF8091E800877F8093E80085
:102240008091E80082FF18C09091F3008091F20025
:10225000029731F48091F100813011F0863021F441
:102260008091F100809313018091E8008B77809337
:10227000E8000E940C0382CF8091C2048111E0CF5C
:102280007DCF8091C404813A09F078CF8091C80451
:102290009091C904892B09F071CF8091E800877F64
:1022A0008093E8008091E80080FFFCCF80911401CA
:1022B0008093F1008091E8008E77D9CF8091C4049B
:1022C000813209F05BCF8091E800877F8093E8003E
:1022D0000E940C038091C704809312014FCF80911C
:1022E000C404813A09F04ACF8091E800877F809347
:1022F000E8008091E80080FFFCCF80911201D8CFE8
:10230000803899F0823809F076C08091C8048F70C7
:10231000873008F070C08093E9008091EB0085FB66
:10232000882780F91092E90006C08091C00490913E
:10233000C104911182609091E800977F9093E8002A
:102340008093F1001092F1008091E8008E77C4C173
:10235000882309F4B1C1823009F04DC08091C604D0
:102360008111B5C18091C8048F702FEF280F2630DE
:1023700008F041C08093E9002091EB0020FFA7C145
:10238000933031F48091EB0080628093EB009FC129
:102390009091EB0090619093EB0021E030E001C060
:1023A000220F8A95EAF72093EA001092EA008091C2
:1023B000EB008860EACF81111EC01091C6041F7720
:1023C0008091E3008078812B8093E3008091E80086
:1023D000877F8093E8000E940C038091E80080FFD3
:1023E000FCCF8091E30080688093E30082E01111CC
:1023F00083E08093C2048091E80083FF0AC080914B
:10240000E800877F8093E8008091EB0080628093F2
:10241000EB00AA96E3E00C941B368058823058F704
:102420004091C6045091C7044C3D83E05807A1F584
:1024300083E08A838AE289834FB7F894DE0113969A
:1024400020E03EE051E2E32FF0E050935700E491AA
:1024500020FF03C0E295EF703F5FEF708E2F90E09A
:10246000EA30C0F0C7968D939D932F5F243159F7C2
:102470004FBF8091E800877F8093E8006AE270E0B8
:10248000CE0101960E94B7038091E8008B7780937C
:10249000E800B1CFC096E7CF8091C8049091C904FD
:1024A000252F33272330310509F44AC078F5213030
:1024B000310509F486C08BE590E0E4E8F3E02230D2
:1024C000310509F098CF2091E800277F2093E8009C
:1024D0002091CA043091CB048217930708F49C0121
:1024E00040E02115310509F071C041116FC08091A4
:1024F000E80082FDC9CF8091C204882329F285308B
:1025000019F28091E80083FFF2CFBECF213231056E
:1025100009F448C02232310509F06DCF83309105AE
:1025200008F069CFFC01EE0FFF1FE05AFE4F01904B
:10253000F081E02D835A9E4FDC018C9190E026C003
:10254000CA019927423031F18330910568F4009730
:10255000B1F0019709F04FCFE5E2F4E0E4918E2F5E
:1025600090E0E5E2F4E012C0039709F044CFE1EF18
:10257000F3E0E4918E2F90E0E1EFF3E007C0EFE2AB
:10258000F4E0E4918E2F90E0EFE2F4E0009709F49C
:1025900032CF99CFEFE0F4E0E4918E2F90E0EFE0BE
:1025A000F4E0F4CF8330910508F025CF880F991F10
:1025B000FC01EA59FE4F0190F081E02D89E090E0A6
:1025C00082CF82E190E0EFEDF3E07DCF8091C20415
:1025D000882309F459CF853009F456CF8091E8005B
:1025E00083FD52CF8091E80082FD81CF8091E80089
:1025F00080FF77CF9091F3008091F2002115310593
:1026000019F08830910550F041E0089709F040E05A
:102610008091E8008E778093E80063CF44914093E7
:10262000F1003196215031090196E8CF803809F048
:10263000E2CE8091E800877F8093E8008091C30418
:102640008093F10081CE8111D6CE1091C604123054
:1026500008F0D1CE8091E800877F8093E800109346
:10266000C3040E940C03112311F084E005C0809183
:10267000E30087FDFACF81E08093C20442E061EC81
:1026800081E00E942B0342E261EC84E00E942B0374
:1026900042E261EC82E00E942B0342E260EC83E0C4
:1026A0000E942B038091C204843021F081E080934A
:1026B0001501A1CE82E0FBCF8091C604813009F0E4
:1026C0009ACE81E0933009F080E08093C1041092AB
:1026D000E9008091E800877F8093E8000E940C0366
:1026E0008ACEE7EBF3E0128E138E8FEA90E09183AF
:1026F000808385E0848F28E833E13383228322E3DB
:1027000030E0378B268B28EC30E0318F208F158E10
:1027100035A324A3178E168E20E530E031A320A325
:1027200082A317A216A2E7D8F6DC109295031092A6
:102730009403E5E9F3E080818460808384E993E099
:1027400070DBF5C8AAE0B0E0E8EAF3E10C94F535F7
:10275000C0909404D090950481E090E0909395040B
:1027600080939404912C812CE12C5401F12C14C001
:10277000F80125913491472D6F2D8E2D0E946D0B00
:102780000E5F1F4F739484E07812F2CF94E0A90E8D
:10279000B11CF394F81639F08501000F111F0C5D80
:1027A0001C4F712CE5CFE394E0E18E0E911CF3E019
:1027B000EF12DBCF96DF1A8219821C821B821E82E7
:1027C0001D8218861F8288EC90E09A87898701EB2A
:1027D00010E0CE0101967C014AE050E0B801C7014B
:1027E0000E949736065F1F4F01301007A9F78AE055
:1027F000F70111928A95E9F74AE050E0B801C70164
:102800000E949736065F1F4F0135F1E01F07A1F7C1
:1028100089E0F70111928A95E9F78FEF9FEF9E8388
:102820008D8387E08A874AE050E0B801C7010E94A3
:102830009736065F1F4F013AF1E01F07A1F786E0C8
:10284000F70111928A95E9F746E050E0B801C70117
:102850000E9497360A5F1F4F013DF1E01F07A1F765
:10286000D0929504C09294042A96EDE00C9411360F
:102870006FEF85E290E00E9479366FEF86E290E09C
:102880000E9479366FEF87E290E00E94793660E02F
:1028900088E290E00E94793655DF6ED86BED85E2D4
:1028A00090E00E9479366AE686E290E00E947936EE
:1028B00067EB87E290E00C947936CF92DF92EF924B
:1028C000FF92FB018FEF9FEF4430510508F47BC06E
:1028D000C080D180E280F3801EDCD701C601B695AE
:1028E000A795979587958170282F220FD701C6014C
:1028F00081709927AA27BB27822BB701A60132E056
:1029000076956795579547953A95D1F74170440F5D
:10291000440F842BB701A601E3E0769567955795A0
:102920004795EA95D1F74170440F440F440F842B2B
:10293000B701A601F4E07695679557954795FA9506
:10294000D1F741704295407F842BB701A601A5E0E5
:102950007695679557954795AA95D1F74170429519
:10296000440F407E842BB701A601B6E076956795AB
:1029700057954795BA95D1F741704295440F440F4A
:10298000407C842BB701A60197E076956795579513
:1029900047959A95D1F7479544274795842B80937F
:1029A0009403D1FA882780F9880F9D2D9170892B87
:1029B000909195039C7F892B8093950384E993E004
:1029C00030DA90E080E0FF90EF90DF90CF900895B4
:1029D000CF93DF93D82FC92F8091BE01883018F094
:1029E0009ADB1092BE012091BE01E22FF0E0EE0FC3
:1029F000FF1FE255FE4FD083C1832F5F2093BE019E
:102A0000DF91CF91089587DB2FEF84E39CE0215085
:102A100080409040E1F700C0000088E19AE00FB6E6
:102A2000F894A895809360000FBE90936000FFCF4C
:102A3000882319F00E94E708C6CA08958091E5032B
:102A4000882321F082E2F4DF1092E50308958823C1
:102A500031F090911805892B80931805B4CA089518
:102A6000882319F00E94EF08AECA0895882319F050
:102A70000E94F708A8CA0895882321F19CEF980FB7
:102A8000913A18F40E9450049ECA90E2980F983030
:102A900050F4877091E001C0990F8A95EAF7892F69
:102AA0000E94EF08F1CF9BE5980F933020F490E05F
:102AB00080E00C949F04885A8B3120F490E080E0F1
:102AC0000C9477040895FF920F931F93CF93DF9395
:102AD000F82E0091A7041091A8040115110509F41E
:102AE00048C01092A6041092A5041092A20410925D
:102AF000A304D8011696CD91DC91CE019A9581154B
:102B00009F4108F4D07ED1E0C11101C0D0E0D801CE
:102B10001996ED91FC911A97309731F01B966D91B3
:102B20007C9180E00995D823DD2339F08CEF8C0F60
:102B3000813A28F58C2F0E945004FF2099F0E091F3
:102B4000A704F091A804808584FD0CC08091A404A2
:102B5000882341F0808191819C01215031092F33DC
:102B60003E4788F030DA1092A8041092A704109221
:102B7000A404C801CDB7DEB7E5E00C94193623DA1A
:102B80008C2F7ADFDACF0E940005ECCFCF93DF9352
:102B9000EC0172DFCE010E94D10A9E01205E310954
:102BA0002830310510F0CD2B21F45ADFDF91CF9181
:102BB00008953EDFFBCFCF93C82F882399F08CEF89
:102BC0008C0F813A88F4E0E7F1E08191C81791F128
:102BD00021E0E637F207C9F76C2F8EE691E00E94FC
:102BE0005D04F1D9CF91089580E28C0F883048F4CC
:102BF000C77081E001C0880FCA95EAF70E94F70804
:102C0000F0CF8BE58C0F833038F42C2F2452330B0C
:102C1000C9010E949F04E6CFC85ACB3118F7EC2FA8
:102C2000F0E0EE0FFF1FE15EFE4F808191810E9478
:102C30007704D8CF8C2F0E945004C5D9CDCF1F93D5
:102C4000CF93DF93182FEB01B6DF209731F4812F5C
:102C500013DFDF91CF911F9108958FE99FE00197D6
:102C6000F1F700C000002197F0CF6091D703709179
:102C7000D803893321F06091D5037091D603DFCF5B
:102C8000B0E0A0E0E6E4F6E10C94F835FC018AE05F
:102C9000B82EDF012D918D012223A1F1213009F001
:102CA0004BC08181813031F48F010D5F1F4F8281D4
:102CB000DCDF07C0823039F48F010D5F1F4F828146
:102CC0007ADFF801E6CF833031F48F010D5F1F4FBB
:102CD0008281D2DEF6CF8F010E5F1F4F843081F4E8
:102CE00082818F010D5F1F4F30E020E0682F60531D
:102CF000770BAB016A30710550F02115310599F45D
:102D00008111DFCFCDB7DEB7EAE00C941436B29E66
:102D1000C001B39E900D11249A01280F391FF801AC
:102D200081918F01E3CFAFE9BFE01197F1F700C0C8
:102D3000000021503109E1CFE22FF0E0ED59FB4FC7
:102D4000A490822F86958695869590E0FC01ED5A99
:102D5000FB4FE4902770F12C022E02C0F594E7940B
:102D60000A94E2F7B1E0EB22FF24FC01ED5BFB4F9C
:102D7000C490D12C022E02C0D594C7940A94E2F7D5
:102D8000E1E0CE22DD24FC01ED5CFB4FC491D0E0FC
:102D900002C0D595C7952A95E2F7C170DD27E114E9
:102DA000F10411F081EE07DFC114D10411F086EEB9
:102DB00002DF70E060E08A2D42DFC114D10411F01F
:102DC00086EE5ADEE114F10411F081EE55DECD2BD2
:102DD00009F477CF8CE26CCFCF93DF93EC010E94A4
:102DE000D10A9E01205E31092830310510F020976C
:102DF00031F43CDE8C2FDFDEDF91CF91089527DEAA
:102E0000F9CF662329F02091180522602093180538
:102E10009C0130522115304308F49927DDCFB0E0F2
:102E2000A0E0E5E1F7E10C94FB35EC018B01D42E39
:102E30008091100182FF80C0E090E103F090E203F6
:102E4000EC16FD0619F0209709F076C0809110016C
:102E50008B7F80931001C1E081FD10C08091DF0362
:102E60009091E0039801281B390BC1E080910E017D
:102E700090910F012817390708F4C0E0C1708091C4
:102E80001001C0FB81F980931001F70183E0F695F2
:102E9000E7958A95E1F7EE71FF27E956FC4F20810F
:102EA0003181A7014F70552781E090E002C0880F63
:102EB000991F4A95E2F7CC23D1F1822B932B918372
:102EC00080838091960381FF08C08091100180610A
:102ED0008093100182E00E94EF088091960385FFA5
:102EE00008C08091100180628093100180E20E94EE
:102EF000EF086C2FC70185DFDD2031F08091D20310
:102F000085FF02C086FF2BC08091D5039091D60328
:102F10000E94610B8091E1039091E2039C01305289
:102F20002115304308F4992731DED7D814C0809595
:102F3000909582239323C3CFCE0190528115904365
:102F400098F4CE01992722DE8091E1039091E2036B
:102F50008C179D0751F31093E0030093DF03CDB767
:102F6000DEB7E7E00C941736CE01EDCFA0E1B0E07C
:102F7000ECEBF7E10C94F0357C01DC0114968C91BC
:102F8000882309F498C160E0C7010E946D0C9C0180
:102F9000F7018681807F71F4409117059091CE04EE
:102FA00049131FC09091AA01992321F09091AB0180
:102FB000907FB9F0D70115969C919111CAC0211547
:102FC000B0E53B0708F0D4C02115E0E23E0708F069
:102FD000E7C0283E310508F0B7C0203E310508F4AF
:102FE000B8C061E0C7010E946D0C8C01F7018581BA
:102FF000882329F18091AC049091AD040097F9F0F9
:1030000008171907E1F0FC01FF27887F9927892B12
:1030100009F0C9C084E0EE0FFF1F8A95E1F7E55F74
:10302000FD4F85818460858311830083CF0131D872
:103030001092180561E0C7010E946D0C8C01F0919F
:103040009401FB87D70115968C91F1111AC0882342
:1030500009F4FEC00115B0E51B0708F0DEC001153C
:10306000E0E21E0708F02BC10115F7E01F0749F049
:1030700008F09CC09801205E31092830310508F025
:103080009AC0882309F4B2C2C801975780389105C5
:1030900010F00C942723003108F0FEC06EE272E0BD
:1030A00080E090E00E94AE0B8111F6C0812C912C43
:1030B0005401011103C204E0AE014F5F5F4F6A018A
:1030C00033243A94D601E02F1D92EA95E9F72401C2
:1030D0003501FFEF4F1A5F0A6F0A7F0AC501B4017D
:1030E0000E94AE0B8983882309F4D6C0813049F54C
:1030F000A50194012E5F3F4F4F4F5F4F2F833887BD
:1031000049875A87C301B2010E94AE0B182F8A83E8
:10311000882309F4C1C08FEF810F833008F0EFC11D
:103120002401350133E0430E511C611C711C6F8179
:10313000788589859A850E94AE0B8B83882309F454
:10314000D6C1C6019DDDD3C1C9019A9581159F41A4
:1031500020F13093C0012093BF01D70112968D91C9
:103160009C919093A4018093A3011092010139CF07
:10317000203E42E5340758F4203852E5350708F080
:1031800030CFC90180529245809718F72ACFC901E4
:1031900087579C470297E8F624CF2111DACF21CF39
:1031A0008111D7CF1ECFF0E0E0E03BCF01153FE02B
:1031B000130709F466CF309196038091180520918A
:1031C000CE0199E0F701A1E8B1E001900D929A9546
:1031D000E1F710938901009388011092AB04832BCF
:1031E000822B809380010937BCE71B0711F00C94F8
:1031F000342381E00E94F1048091800128DC89E081
:10320000E1E8F1E0A7E7B1E001900D928A95E1F7DE
:103210008091AB048093760127C0003E42E51407FD
:1032200080F4003652E5150730F498013255203409
:10323000310508F0C0CF0A37ACE71A0709F021CFF3
:103240004DC0980127573C472530310508F0B3CFD2
:103250000937FCE71F07D1F52091880130918901DA
:10326000232BD1F08111C5CF86E0F701A7E7B1E0AC
:1032700001900D928A95E1F78091760180939401F7
:1032800087E791E073DE10929401F7018581811147
:1032900003C080918001CCDB8091A904877059F034
:1032A000F7018581882339F08091950382FF03C05F
:1032B00082E00E943F0A6096E2E10C940C36D7014E
:1032C00016969C91907F09F076CFDBCE0A37FCE70B
:1032D0001F0709F0D6CE882309F4C8C0A090880142
:1032E000B0908901209180012F832983BE016F5FF7
:1032F0007F4FC5010E945A062C0139813F8714E592
:10330000C12E13E0D12E01E010E022242A94D60130
:1033100017963C90179733FE54C08D909C90119750
:1033200048145904B9F414967C901497232D1696DA
:103330004C91672D8F850E943806882359F0872D80
:103340000E94C70A281634F4F60195810281138180
:10335000192B282ED60112966D907C901397461447
:103360005704C9F431FE17C01596BC91B88B232DB4
:10337000F60146816B2F8F850E943806882359F00D
:1033800088890E94C70A281634F4D60114969C91A5
:103390008401192B282E30FE14C0BFEF2B1211C050
:1033A0000130110571F4232DF601468160E08F850F
:1033B0000E943806882329F0D60115968C91830146
:1033C000182BB8E0CB0ED11CE4E9F3E0EC15FD05B9
:1033D00009F09DCF0130110509F03DC08F81807F3C
:1033E00011F0F0E1FB871F8112951F702F81122BC6
:1033F0001F703B85132BA11440E2B40628F55FEF44
:10340000A516B10419F010F01B29BB240A2D812F39
:103410008D704A2D09F44EC06AE082E691E00E9468
:10342000DB04282F30E02115310551F4402F66E1EF
:1034300084E491E00E94DB04282F30E0882349F0E7
:10344000F901F12B8F0107C0C501905281159043FE
:10345000E0F210E000E087E0EBE8F1E0DF011D9230
:103460008A95E9F71093930100939201809192015C
:1034700090919301892B09F40FCFF701858188235F
:1034800039F08FEF0E94F1048091AB0480938A01A0
:1034900086E0F701ABE8B1E001900D928A95E1F783
:1034A00080918A01809394018BE891E05FDD109216
:1034B0009401F2CE68E08AE591E0B1CFFFE28F1689
:1034C000F2E09F06A104B10409F4E6CEC501B401FF
:1034D0000E94AE0B811101C001502FEF821A920A97
:1034E000A20AB20AE6CD4B845C846D847E845301CB
:1034F0004201E8CD4F80588469847A84F8CF8BEFFD
:10350000810F8330B8F5D501C4010396A11DB11D0B
:103510008B879C87AD87BE876F81788589859A85E3
:103520000E94AE0B8B838823F1F22401350194E0D5
:10353000490E511C611C711C6B857C858D859E8597
:103540000E94AE0B8C83882391F28B819C81813009
:10355000AFEF9A0710F0982F8827163029F0173010
:1035600031F00E949E2CC3CF0E947A2CC0CF0E94C3
:10357000032CBDCF143009F0BDCF6F8178858985CC
:103580009A850E94AE0B182F24013501B4E04B0E32
:10359000511C611C711CA50194012D5F3F4F4F4FC1
:1035A0005F4F2F83388749875A87CA01B9010E9424
:1035B000AE0B112309F470CE882309F46DCE81502F
:1035C000990B389E9001399E300D1124412F4150A6
:1035D000550BCA01820F931F019708F488CFAFE9FA
:1035E000BFE01197F1F700C00000F6CF0115E7E545
:1035F0001E0708F4FCC70115F8E51F0708F068C0AE
:10360000680127E5D21A61E072E08C2D0E941C0D42
:10361000892B29F5C601A4E0880F991FAA95E1F727
:10362000FC01E55FFD4F2281213009F03EC0209171
:10363000010230910202232B91F02091030230917C
:103640000402232B61F02091050230910602409183
:10365000070250910802242B352B232B71F1053ED4
:10366000110509F45CC08091E503811170C0D70198
:1036700015963C90332009F428C10E35BCE71B0792
:1036800009F41FC10F35ECE71E0751F00D35FCE7BB
:103690001F0709F01AC180910001882309F411C1A4
:1036A0001092000180E00FDAF7CD2230C1F62091B0
:1036B000050230910602232B91F2FC01E05FFD4FE1
:1036C00020812E7F2083855F9D4F0E944910C7CFA8
:1036D00003373CE7130709F4DFCDC1CF10929603FF
:1036E0000E94B5080E94410488579C4E9093EB01BC
:1036F0008093EA0181E08093E503CECDD701169651
:103700008C91807F09F0ABCF812F99278F719927FA
:103710008230910509F47AC7429709F0A0CF25EECF
:1037200030E076C78095822388C7322F382309F48A
:103730009ECF982F90952923209395010E94EF0802
:10374000D70115968C91882309F4A6CD90CFC0900F
:103750009603D090CE010E94410488579C4E9093CE
:10376000EB018093EA01F7018581882309F47FCF7B
:103770008D2D8C298D7909F075C00115F0E51F0795
:10378000D8F5011520E4120708F072C0063E1105B5
:1037900009F46DCFC80190528115904208F044C0E1
:1037A000D70116968C91807F09F455C06801DD24FD
:1037B0008091100180FD68C08FEF0E94E708BDE294
:1037C000CB16D10499F008F072C0F8E2CF16D104FC
:1037D00008F05CC02EE1C216D10408F05BC034E0F2
:1037E000C31AD1084AE1C416D104E0F58091180546
:1037F0008260809318054EC0003EB2E51B07E0F4DE
:10380000003CE2E51E0708F032CF003AF2E51F0760
:1038100068F4003622E5120708F029CFC801925556
:103820008034910508F423CF6801C2CF043B32E510
:10383000130709F41CCFF8CF09374CE7140728F415
:1038400007375CE7150780F312CF0B378CE71807B3
:1038500009F40DCFE9CF812F8F71843109F407CF9F
:10386000863169F0EBD8809195010E94F708FFCE70
:10387000D70116968C91807F09F098CFF8CEE6EEAE
:10388000CE2EE2E1DE2E94CF8DEF97CF5AE2C51611
:10389000D10441F780919501882331F0809118057A
:1038A00092E08927809318050E94E30FE0CE8CE414
:1038B000C816D10479F39DE2C91692E0D90651F3F6
:1038C000D1CF81E080930001E7CC80910001882373
:1038D00009F4B9C5380120EE621A71082090CE01B2
:1038E0008091C101282A80919603282A38E0631626
:1038F000710408F087C098012770332781E090E0B9
:1039000001C0880F2A95EAF7332009F478C0282AE5
:10391000D7018D919C910E94A80921E030E02901F6
:1039200002C0440C551C8A95E2F7E091A704F0917F
:10393000A804F887EF8320919601309197013C8786
:103940002B877CEDC72E72E0D72EB12CA12CB8E0CE
:10395000AB16B10409F4D9C5211005C0D6011296E1
:103960008C91811189C0F601838190E08421952199
:10397000892B09F481C08085982F977009F487E01E
:10398000F8E06F16710408F057C0332009F450C0F6
:1039900086958170882309F46FC0D6018D909C9024
:1039A0000815190519F4332009F466C0EF81F8856C
:1039B000EC15FD0509F460C0D6011D96ED91FC9152
:1039C000309721F08081882309F456C0622DC6010A
:1039D0000E945605882309F44FC00815190509F0FF
:1039E0004BC60115110509F44CC631104CC6EB85C8
:1039F000FC858E169F0609F03FC0312C44C6809589
:103A0000282286CF332009F469C5109397010093CB
:103A100096010E94240460939E0470939F048093F7
:103A2000A0049093A1041092A6041092A50470CF54
:103A300082FB882780F9AECF3320F1F08170AACFC6
:103A40001BD846C60497813A910558F46C2D8EE632
:103A500091E00E945D04332009F4F5C40E94E30F55
:103A60001BCC0E94E30F8FE39CE90197F1F700C0A4
:103A700000008C2DA0D8EFCF9FEFA91AB90AAFE0B4
:103A8000CA0ED11C64CFDC012D913C9102171307A3
:103A900009F0D3C43110D3C41092A40480E013D829
:103AA000D2C4902F812F15C5F901448555856685AF
:103AB0007785C9010E94D604D60115968C9181FFA5
:103AC00038C5C6010E9433108091AC049091AD04BA
:103AD0000817190709F02DC51092AD041092AC0417
:103AE00028C590911001892F8E7F90FF816080936F
:103AF00010010E946D1048C5809110018E7FF7CF94
:103B0000809110018F7E013E110531F0053E1105B7
:103B1000E1F4809110018F7D80931001809110015C
:103B200080FF3CC5D70115968C910832110598F499
:103B30000E31110508F05FC09801245031092A3177
:103B40003105D8F0811126C529C5C80190528115CB
:103B5000904320F723C50933110558F40D321105A0
:103B600018F40B32110571F79091D20392FDEACF50
:103B700008C004361105C1F3E5CF9091D20394FD3E
:103B8000E1CF882309F4A7C08091CE0190919603DC
:103B9000892B8D7FA9F11092E2031092E1038091AD
:103BA000D20381FD2DC0F80153E0F695E7955A95B3
:103BB000E1F7EE71FF27E956FC4F98012F7033278C
:103BC00081E090E002C0880F991F2A95E2F7809566
:103BD000909520813181822393239183808360E0BB
:103BE000C8010FD98091CE018D7F0E94C00882E06C
:103BF0000E943F0A51CB9091D20393FDA3CFC1CF36
:103C000089E0F701A1EEB1E001900D928A95E1F70C
:103C10001092E4011092E3018091E1039091E2039C
:103C200008171907C9F52091D20325FF35C0309137
:103C3000100131FF02C026FF2FC02091DF03309119
:103C4000E0036501C21AD30AB7010E94300DC816FD
:103C5000D90610F58091960381FF08C0809110016C
:103C600080618093100182E00E94EF0880919603AA
:103C700085FF08C08091100180628093100180E26E
:103C80000E94EF0860911001669561708091E103D8
:103C90009091E203B6D800CB8091CE01D0909603EC
:103CA000D82AD1FADD24D0F88D7F0E94C008109365
:103CB000E2030093E103B092E003A092DF038D2DB5
:103CC000880F8460D0901001BD2DB97FDB2ED82ADB
:103CD000D09210018CCF970140E0B501C8019FD868
:103CE000DBCA81E0992351F00E94540A43E062E06C
:103CF00081E00E94160AD0CA82E0F4CF0E94340A02
:103D0000F5CF4091AA048091D901282F30E0209569
:103D1000309570E024233723232B19F04823409358
:103D2000AA040B375CE7150741F4992309F4B4CAD8
:103D30000E94B70A0E945E0AAFCA003482E51807E3
:103D400008F0BDC00032A2E51A0708F0BEC0011598
:103D5000B0E51B0708F087C00115E0E41E0708F472
:103D600088C0D70116968C91807F09F082C091118E
:103D700011C0212F2F7081E090E002C0880F991FA1
:103D80002A95E2F72091AA0430E082239323892B1D
:103D900009F082CAD70117968D919C91009709F47A
:103DA000E5C00E94A407182FD92E86E0F701DE0196
:103DB000119601900D928A95E1F7D7011596BC9066
:103DC00015971696CC90C2949FE0C9228091A904C1
:103DD000877001F1AB2CBB20F1F08D2D807F8034FA
:103DE00061F080E2810F8830A8F08D2D807E8032D6
:103DF00021F4123078F0CC2069F08091950382FF95
:103E000009C082E00E943F0A8091A9048770AA2419
:103E1000A3948111A12C9D2C92948FE09822B8E05C
:103E20009B1609F4D8C1B91508F4EEC0E3E0E91512
:103E300008F4B4C08D2D807F0D2D0F70F1E0F915C1
:103E400008F0F5C0803211F00295007F112309F4CB
:103E50001FC1113009F482C1BB2009F48EC1CC20EE
:103E600009F432C1F7C0980130552115324008F4E9
:103E700041C0992309F48ECF0A35BCE71B0709F42A
:103E800071C008F054C00130FCE71F0709F468C096
:103E900003302CE7120709F45DC001153CE7130756
:103EA00009F078CF0E948B108FEF94E3ACE0815043
:103EB0009040A040E1F700C000000E941304980168
:103EC000205C324520323105A0F6802F8F71209181
:103ED000AA0430E041E050E0082E02C0440F551F14
:103EE0000A94E2F724233523232B19F2992309F4AA
:103EF000D3C920CF980145E0369527954A95E1F73B
:103F0000822F8F702091AA0430E041E050E0082E0B
:103F100002C0440F551F0A94E2F724233523232BB4
:103F200009F4A7CF911106CF1092960397CD0B35C8
:103F30004CE71407C9F00C355CE7150709F02ACFE8
:103F40008091950382FB882780F991E089270E9460
:103F5000180F20CF6FEF7FEF90E080E00E94933644
:103F60000E94031581E0F3CF80E0F1CFF701858156
:103F7000C080D180882369F0C6010E94080C182FE8
:103F8000682FC6010E94DC09B601812F0E94ED0B4B
:103F900008CFC6010E94A809182FF6CF24E0921678
:103FA00009F4FDC0A92DA850BB0B149718F40E946A
:103FB000C704A12C812F9D2D0E94990A882341F0CE
:103FC000BB2009F40BC2CC2009F4FFC110929C0164
:103FD000AA20A9F08091A90480FD11C0F7011582E3
:103FE0008695869586950E94540AC7010E94B61749
:103FF0008091A9048695869586950E94340A60E092
:10400000C7010E946D0C57C939E0931609F452C1DB
:1040100086E0890D8F70823028F6123F09F05AC170
:104020008D2D8F71B11053C10E94540ABBCF8823CC
:1040300011F00295007FBB20A9F0002359F080E227
:10404000810F883010F0111107C0802F0E94F708EF
:104050000E94E30F812F2AC080911805082B00933E
:104060001805F6CF812F0E943C15002309F49ACF42
:1040700080E2810F883010F0111104C0802F0E945F
:10408000EF0803C0802F0E94E7080E94E30F8ACF49
:104090008091950382FD14C0BB2059F0002329F0C4
:1040A000802F0E94F7080E94E30F80E00E94DB153A
:1040B00079CF80E00E943C15002309F473CFDECF56
:1040C000BB2091F1C11004C0802F0E9436156ACF29
:1040D00041E0C41211C08090CE01802F88210817C2
:1040E00009F460CF0E9441049093CD018093CC01EC
:1040F00008290093CE0156CF8091D303823008F473
:1041000051CFC8124FCF802F0E943615802F0E94AA
:10411000D3088091C101902F9823091709F442CF49
:10412000082B0093C1013ECFC1100AC0802F0E940E
:104130003015802F0E94D308802F0E941E0932CF95
:104140008091D303823008F42DCF51E0C5122ACFDD
:1041500080919603802309F425CFE8CF8091D9037D
:10416000BB2021F08C1508F41DCFAECFC81608F087
:1041700019CF802F0E94301515CFCC20D1F380911C
:10418000D7039091D803193321F08091D5039091F2
:10419000D6030E94610B812F0E943C1503CF8D2D09
:1041A00086958695837069F0813009F0FBCE812F6A
:1041B0009D2D9370B11002C080E090E00E947704C2
:1041C000F1CE812F9D2D9370B11002C080E090E060
:1041D0000E949F04E7CE8D2D837099F5B110E2CE39
:1041E000412F429546954770440F440F812F8F70A1
:1041F000042E01C0880F0A94EAF7212F207114FFC2
:1042000007C02FE030E001C0220F4A95EAF7209561
:104210003D2D369536953370323071F0333051F094
:104220004091D801313029F0822B84230E94960AD4
:10423000B9CE842B822BFACF282B8091D8018227EC
:10424000F5CF8695BB2011F08D2D8170882309F460
:10425000A9CE412F429546954770440F440F812FB8
:104260008F70042E01C0880F0A94EAF7212F207165
:1042700014FF07C02FE030E001C0220F4A95EAF793
:1042800020953D2D369536953370323071F03330B0
:1042900051F04091D901313029F0822B84230E94C2
:1042A000130A80CE842B822BFACF282B8091D90140
:1042B0008227F5CF0D2D0F70BB2029F0802F0E9493
:1042C000540A812F02CF812F0E943015802F0E9427
:1042D000340A68CE133F60F4103FB9F0113F81F00B
:1042E000BB2009F46DC0C110B5CE8D2D8F719CCE51
:1042F000133F11F1143FA1F78091950382FD28C06F
:104300008D2D8F71BB2019F38FCE8091D903BB20E7
:1043100079F0C81608F046CE2D2D2F7181E090E07F
:1043200001C0880F2A95EAF79091D9018927B7CF64
:104330008C1508F437CEF0CF80E0BB2009F4AFCF66
:1043400081E09D2D9F7101C0880F9A95EAF7A7CF54
:104350008091D303823008F1BB20A9F09091A90489
:104360009770943041F40E94FD088D2D8F710E944A
:10437000340AA12C17CE63E0C816D8F78D2D8F71A3
:104380000E94830AF6CFC81620F00E94FD0864E060
:10439000F5CF81E00E943F0AECCFBB2031F063E013
:1043A0008D2D8F710E94830AFDCD81E00E943F0A0E
:1043B00081E08C1508F0F6CD82E00E943F0AF2CD34
:1043C000C110DDCE8D2D8F7182CF80919B018093A6
:1043D0009A018091960380939B01FACD1E8220E082
:1043E00049815A816B817C818D8190E00E944D0CC6
:1043F0009C0100919603CC2029F010929C0100931F
:104400009B01E6CD80919801909199012817390779
:10441000B1F78091D40382FFF0CF80919C01882373
:1044200061F380919A010E943615812F0E94351602
:1044300080919A010E943015E0CF332021F0FC01D9
:10444000808585FF2BCBC80197558F3F910511F0D3
:1044500008F06FC0C801887F9927892B11F00C9450
:104460004C19F801FF2764E0EE0FFF1F6A95E1F792
:104470009F01255F3D4F6901D70115968C91E05F43
:10448000FD4F908180FB90F99083882309F40CCB39
:104490000E9441049093E0018093DF01F601828144
:1044A0008F5F82838091180590919603892B838377
:1044B0008091CE0184834681578166857785C601C8
:1044C0000E94D604D60115968C9181FFEACA90E02D
:1044D00080E09093AC048093AD042BC08091960152
:1044E000909197010817190781F410929701109283
:1044F000960110929E0410929F041092A0041092B4
:10450000A1041092A6041092A5048091A704909192
:10451000A804009709F497CFE8E06E16710408F03C
:10452000B2CA622D0E945605811103C081E00E942B
:1045300063158091D20380FF31C00E9441045C0169
:10454000F7018581882309F4DBCA8091100182FF7D
:1045500008C021EE31E040E0B50190E080E00E942B
:104560000F170431FCE71F0709F4C6CA05312CE711
:10457000120709F4B6CA03313CE7130729F4809106
:104580001001816080931001C80190528115904301
:1045900008F0C4CA1092E2031092E103F70195817A
:1045A0000737FCE71F0709F49CCB08372CE71207F5
:1045B00009F4A2CB9801205E32452032310508F083
:1045C000A0CB91119ECB0F7181E090E0AC0102C0B5
:1045D000440F551F0A95E2F78A01642F83E090E0AB
:1045E0000E947936802F0E94960A0C944C19023A48
:1045F00022E5120759F028F5C80190528115904222
:1046000008F47CC8013E110509F029C821EE30E00C
:104610002770332781E090E001C0880F2A95EAF7E0
:10462000209195013091E503332309F47EC8F70109
:104630003581332309F476C8822B809395010C943D
:104640004C19023B52E5150709F469C808C803373D
:104650008CE7180761F68091E503882309F43EC8CA
:104660000E941E150C944C190A379CE7190711F08B
:104670000C9444180C946E198114910409F0B7C974
:10468000312C912C812C80E00E946315D092A804DB
:10469000C092A70481E08093A4048FE08A9DF0017A
:1046A0008B9DF00D1124E452FD4F85818093A2046F
:1046B00031100EC08114910459F0808191819C01C8
:1046C00024503109213A310508F0BAC90E9450043A
:1046D0008FE08A9DF0018B9DF00D1124E452FD4F77
:1046E000C680D780C6019A9581159F4110F420EEAF
:1046F000D22299249394C60101978F339E4708F0E4
:10470000912C8FE08A9DD0018B9DB00D1124A45275
:10471000BD4F1996ED91FC911A97309731F01B9689
:104720006D917C9181E0099598229920B1F08FE0FC
:104730008A9DF0018B9DF00D1124E452FD4F86817E
:1047400097810E94D10A8093A304C60148E06416B1
:10475000710408F077C90E9400050E94E30F7BC92D
:10476000EF92FF921F93CF93DF93EC012091010111
:10477000222341F010E0812FDF91CF911F91FF9014
:10478000EF900895EA80FB80E61AF70A24EFE2161C
:1047900021E0F20678F760E0CE010E946D0C9C01EA
:1047A00030522115304330F70E943209882311F32B
:1047B0008091BF019091C0010E943209182F882377
:1047C000C9F28091DD039091DE03853F21E09207DD
:1047D00010F084EF91E0E816F90660F68E818F7094
:1047E00080618E83888199810E94E8140E949A09D1
:1047F000CE010E94B617BFCFB0E0A0E0E2E0F4E245
:104800000C94F935D82EC92E89E0B82EE091170501
:104810008091CE04E817C9F10E2F10E0EB9DE00166
:104820001124C153DB4FBE9E700111248D8188235A
:1048300081F0CE010E943D0C882359F0F701EB5224
:10484000FB4F80818F7080618083888199810E9475
:10485000E814CE010E94B6172091170530E02F5FB3
:104860003F4F2770332720931705B09EF001B19E6C
:10487000F00D1124E153FB4F81818C11C7CF808152
:104880008D11C4CF8581882309F2CDB7DEB7E9E069
:104890000C941536B0E0A0E0E0E5F4E20C94FB35B2
:1048A0008091AB01807F09F054C08091AA018823D8
:1048B00009F44FC0E091170589E0D82E8091CE040D
:1048C0008E1709F446C00E2F10E0ED9DF001112463
:1048D000E153FB4F8481882309F440C0D09EE0015E
:1048E000D19ED00D1124FE01E153FB4F91818091A7
:1048F000A601981333C090818091A50198132EC012
:10490000858181112BC0E280F3808091A701909175
:10491000A801E81AF90A60E085EA91E00E946D0CAE
:1049200065EA71E00E94300DE816F906B8F480914E
:10493000AB018F7080618093AB01CB52DB4F8881DC
:104940008F708061888385EA91E00E94B6170E948B
:104950002809CDB7DEB7E7E00C941736F801319699
:10496000E770ACCFAFE0B0E0E8EBF4E20C94F135E7
:104970008C0186E0F801DE011A9601900D928A956D
:10498000E1F7D8014C9011965C9011971296ED903A
:10499000FC90139714963C90149715967C90711088
:1049A0000EC04A865B865091BE01252F30E0E0E0C4
:1049B0008E2F0E2E000C990B821793076CF065EA70
:1049C000A62E61E0B62E8091A901811163C031103D
:1049D00035C07724739455C0880F991F82559E4F18
:1049E000DC0111964C911197541203C08C9148161A
:1049F00011F0EF5FDDCFEF3F11F3D80116968C91E8
:104A000016978F70806116968C93E517A0F4AFEF20
:104A1000A50FA093BE01EA1770F4F0E0EE0FFF1FA0
:104A2000E255FE4FB0E0AA0FBB1FA255BE4F8D91BD
:104A30009C91918380830E949A09C1CF772031F1A4
:104A4000C8010E943D0C782E882301F16091A301DA
:104A50007091A401C80184DE8111BBCF89E0F80107
:104A6000A5EAB1E001900D928A95E1F78091A90144
:104A7000813031F48091A5019091A6010E94310C02
:104A800009DF872D2F96E1E10C940D36C8010E94B5
:104A9000B6179FCF60E085EA91E00E946D0C6C0133
:104AA0006090AA018091A7019091A801662009F465
:104AB00074C24701881A990A60E085EA91E00E9471
:104AC0006D0C65EA71E00E94300D8816990608F0B9
:104AD00034C2332009F47DCF8091AB01382F307F71
:104AE0002091A601F80191813111DAC1291353C037
:104AF0002091A501908129134EC04091AC015091A5
:104B0000AD01278130854217530709F044C0711069
:104B100042C08F7080618093AB0185EA91E00E9472
:104B2000B6178091AB01D80116968C93F090A7012F
:104B3000E090A80159E0D52E009117058091CE0490
:104B4000081749F00D9D8001112401531B4FF801F6
:104B50008581811104C00E942809712C92CFB280F6
:104B6000C380C8010E943D0C81110EC0C8010E9483
:104B7000B6178091170590E001968770992780936A
:104B80001705FB2CEC2CD8CF6F2D7E2DC801E8DD4E
:104B90008111EFCFE0CFB0E2DB1AC114E0E3DE0613
:104BA00008F089C071108AC0652D842D0E94900282
:104BB000811150C0652D842D0E949002782E88238B
:104BC00009F402C18091D40380FFC7CF85EA91E048
:104BD0000E94B61760E085EA91E00E946D0C8C019E
:104BE0008090170528E0922E35EAA32E31E0B32EEF
:104BF00049E0342E8091CE04881699F0C82CD12C2F
:104C0000839CC0011124FC01E153FB4F7F0160E054
:104C1000CF010E946D0C3C01D70115968C9181113A
:104C2000A9C0B7E0B91528F019E0809117058911DE
:104C3000BBC04A865B868A859B85DEDD0E949A0919
:104C40000E94280989E0E5EAF1E0DF011D928A95DA
:104C5000E9F783CF60E0C8010E946D0C8091D40316
:104C600083FFA8CFB80185EA91E00E946609782EFB
:104C70008111A0CF8091AB018F7080618093AB01D7
:104C80008091A5019091A6010E94E81485EA91E027
:104C90000E94B617E5EAF1E089E0DF011D928A95EE
:104CA000E9F74A865B868A859B85A6DD0E949A097C
:104CB0000E942809E6CE772009F47CCF8091AB01D1
:104CC00081608093AB01C114B0E3DB0608F4ACC093
:104CD0008091D40381FF41CF85EA91E00E94B6170D
:104CE000809117059091CE04891709F4D1C0082F3F
:104CF00010E099E0F92E8F9DC001112481539B4F44
:104D00000E943D0C882309F4C3C0F09EF001F19E7F
:104D1000F00D1124E153FB4F89E0A5EAB1E00190C9
:104D20000D928A95E1F70F5F1F4F077011270093CF
:104D300017050E94280989E0F82E00911705809137
:104D4000CE04081709F407CF0F9D800111240153E9
:104D50001B4FC8010E943D0C8111FDCEC8010E946D
:104D6000B6178091170590E0019687709927809378
:104D70001705E3CF10520115E0E31E0708F051CFED
:104D80008091D40383FF07C0B701C5010E94660963
:104D9000811101C0892CC6010196982CF82FF7705B
:104DA0008F2E8301570126CF819FC001112481538B
:104DB0009B4F0E94B6178091170590E0019687706F
:104DC00099278093170531CF4A865B868A859B8514
:104DD0000E94310C292F22952F70903450F49F702F
:104DE000223080F0992399F0F8019681907F79F430
:104DF00048CE2A5F2F70223078F0C8010E94B61783
:104E0000762C3FCE992319F0882309F43ACE805EA0
:104E1000883008F436CEF1CF803F08F432CE815F7F
:104E2000833008F42ECEE9CF60E0C8010E946D0CFB
:104E30008091D40383FF4CCFB80185EA91E00E94B2
:104E40006609811145CF8091AB018E7F8093AB01C4
:104E5000C8010E943D0C782E81117FCE8091AB015C
:104E60008F7080618093AB018091A5019091A60124
:104E70000E94E8140E949A0985EA91E00E94B61700
:104E8000E5EAF1E089E0DF011D928A95E9F7F9CDC5
:104E900089E0E5EAF1E0DF011D928A95E9F74BCF61
:104EA00029131DC02091A5019081291318C040919C
:104EB000AC015091AD01278130854217530779F439
:104EC00071100DC08683C8010E94B61789E0F801F1
:104ED000A5EAB1E001900D928A95E1F791CFC80162
:104EE0000E943D0C882309F4D1CD772009F4CECD62
:104EF0008091AB018032B8F02091A5013091A601DC
:104F00003A832983FC82EB829091A9019D831E82C2
:104F10008F838091AC019091AD0199878887CE01F4
:104F200001960E94B61789E0F801A5EAB1E0019068
:104F30000D928A95E1F7AEDC4CCD8091AB01982FB4
:104F4000907F39F485EA91E00E94B61789E0D50197
:104F50007DCE332009F43DCD2091A601F801918149
:104F60002913BDCF2091A50190812913B8CF40917D
:104F7000AC015091AD01278130854217530709F0EC
:104F8000AECF7110ACCF8683C8010E94B61789E0FE
:104F9000D5011D928A95E9F733CF6701C81AD90A5E
:104FA00060E085EA91E00E946D0C65EA71E00E9484
:104FB000300DC816D90608F068C0332009F409CDB1
:104FC000772009F463CD9091A601F80181819813AF
:104FD00040C09091A501808198133BC02091AC0105
:104FE0003091AD01878190852817390791F580911F
:104FF000A7019091A801E81AF90A60E085EA91E01A
:105000000E946D0C8091DB039091DC03E816F90699
:10501000B8F48091AB0180FD13C0982F907F81F090
:10502000D80116968C931697903F39F0982F907F61
:10503000905F8F70892B16968C93C8010E94B617CB
:1050400089E0F801A5EAB1E001900D928A95E1F7B7
:1050500018CDC8010E943D0C882371F06091A30116
:105060007091A401C8017CDB782E882309F45BCF02
:1050700089E0E5EAF1E007CF8091AB0181608093A0
:10508000AB01C8010E94B617FCCC89E0F501119272
:105090008A95E9F762CDA2E1B0E0E1E5F8E20C948F
:1050A000FE350A871B872C873D874E875F87688B75
:1050B000798B8A8BCE010A9655DC81110CC089E070
:1050C000FE013A96DE01119601900D928A95E1F764
:1050D0004E85411128C019E0809117059091CE04AA
:1050E000891741F0819FC001112481539B4F3ADC05
:1050F000811147C08E85811112C0809101018111FB
:105100000EC08C859D852091A3013091A401821B46
:10511000930B8F3F9F4318F081E0809301016296CB
:10512000E4E00C941A362091CE0430E0C9010196D7
:10513000877099275091170558171906A1F04D83CC
:1051400099E0929FD001939FB00D1124A153BB4FC2
:10515000FE01319601900D929A95E1F78093CE046D
:105160000E942809B8CF0E948B101092CE04109292
:10517000170589E0E5EAF1E0DF011D928A95E9F77C
:10518000AACF8091170590E00196877099278093A8
:105190001705A2CFEF92FF920F931F93CF93DF9348
:1051A00080911F04882361F0E091E6038DE0F82EE2
:1051B00080911F04E81748F010921F041092E60334
:1051C000CDB7DEB7E6E00C941836EE24E394EE0E8D
:1051D000E092E603CE2FD0E0EF9DF0011124E05ED7
:1051E000FB4F8481882329F187819085892B21F4C5
:1051F00081859285019651F400811181228133814C
:105200004481558166817781808545DFFC9EF00170
:10521000FD9EF00D1124E05EFB4F14828091E503AA
:10522000882349F08091100180FF05C08DEF0E9416
:10523000E708EE2DBDCF8FEFFACF109293041092B6
:1052400092041092110180919104809390040E9425
:10525000A205A0CFB0E0A0E0E0E3F9E20C94F135C4
:10526000C091900497E0992E01E010E02DE0322EDD
:1052700034E0432E55245394809191048C1308C03C
:1052800089DF0E94A205CDB7DEB7E1E10C940D36AF
:10529000D0E0FE01EE0FFF1FE857FB4F80819181A8
:1052A000989ED001999EB00D1124A951BC4F14961F
:1052B0002C911497211159C060901F04E0E2F4E092
:1052C00030E020E0812C5D01261508F04CC0E3841D
:1052D000F484D501CD90DC906FEF7FEF712C472DDA
:1052E00050E0DA01AA0FBB1FAC0DBD1D0D90BC91A3
:1052F000A02D109731F0EA16FB0609F4BA01739459
:10530000EECF6F3F7607A9F1D80102C0AA0FBB1FED
:105310006A95E2F78A2AB801072C02C0660F771F48
:105320000A94E2F7AB01415051098416150601F5C4
:10533000329EF001339EF00D1124E05EFB4F989EEB
:10534000D001999EB00D1124A951BC4F12962D91F8
:105350003C91139730872783448210821182928771
:10536000818715965C920E9476052196C37084CF42
:1053700014822F5F3F4F3D96A7CFAEE1B0E0E3EC44
:10538000F9E20C94F0354B8B5C8B6D8B7E8B8F8BA5
:10539000192F988F882309F470C020E00E944D0CCB
:1053A0009C01112349F010929C01909399018093E4
:1053B0009801109218050AC0809198019091990166
:1053C0008217930719F481E080939C01188A198A47
:1053D0001A8A86E0FE017396DE011A9601900D92FC
:1053E0008A95E1F78091950382FF1EC08091B903F1
:1053F0009091BA03892BC1F00E9441042091C2010F
:105400003091C301821B930B2091B9033091BA03F1
:105410008217930720F08091A90482FFF0C10E94B7
:10542000040981110E94B5088E858823D9F061E0B6
:10543000CE010A960E946D0C61E0CE010A960E9490
:105440006D0C61E0CE010A960E946D0C6C018F8597
:1054500020E5C2162CE7D206A1F4882339F181E0B9
:10546000809311010A851B852C853D854E855F85BE
:10547000688979898A890FDED2C0992309F4A6CF79
:1054800098CF31E5C3163CE7D30621F4882371F0A9
:10549000D4DEE8CF42E5C4164CE7D40639F48823BD
:1054A00029F0809111018111F3CFD9CF87EEE82E39
:1054B00083E0F82E512CB12CA12C22242394312CE2
:1054C000BE016F5F7F4F7A8F698FF70140815181F5
:1054D00088248A94982C20E0822F90E0FC01EE0F23
:1054E000FF1FE40FF51F608171816115710531F0B7
:1054F000C616D70609F44C012F5FEECF10E0FFEF80
:105500008F169F0609F44CC0F701448110911101D8
:10551000812F411180E0182F1170F701458086819D
:105520009F85992309F4FDC0112309F4FAC0609006
:10553000CD037090CE03411013C0A101082C01C00F
:10554000440F0A94EAF7842B86838091E3039091B9
:10555000E4038615970520F47092E4036092E30358
:10556000C10102C0880F991F2A95E2F70197F70140
:10557000268128171906A1F4809092049090930434
:105580008114910409F44FC00E94410488199909BB
:105590006816790608F047C021E0F701248311E07E
:1055A000512AFFEFAF1ABF0A27E0E20EF11C38E0E4
:1055B000A316B10409F089CF8F85882309F40DC1A2
:1055C000552009F40AC10E944104909393048093EA
:1055D000920480911F04883010F591E0980F909309
:1055E0001F0499E0FE013A96DE01119601900D929A
:1055F0009A95E1F74DE0849FC0011124805E9B4F96
:1056000029E0FE013196DC0101900D922A95E1F727
:105610002FEF3FEFFC0132872187D486C3866E9639
:10562000E2E10C940C368091900450919104982FF3
:10563000F0E0E0E0851314C090939004EE15FF05B0
:1056400009F4AECF90E0FC01EE0FFF1FE857FB4FCF
:10565000B182A08201968370992780939104A0CF94
:10566000682E712CF301EE0FFF1FE857FB4F2081CE
:10567000318147E0429FD001439FB00D1124A951D1
:10568000BC4F6D917C9111977E8F6D8F40E020E033
:1056900030E0E32FF0E0EE0FFF1F6D8D7E8DE60F03
:1056A000F71F8080918081149104E1F0F70101904F
:1056B000F081E02DFC8FEB8F20E005C08616970669
:1056C00009F4412F2F5FE22FF0E0EE0FFF1F6B8DEB
:1056D0007C8DE60FF71F608171816115710571F78F
:1056E0003F5FD7CF4423D1F0F701231708F0FD0126
:1056F00021E02483EE16FF0621F490939004142FEA
:105700004FCF981305C0AE17BF0711F49F5F93707A
:1057100093012F5F3F4F822F83708CCFF0E0E0E04A
:10572000F7CF90E0411020C0B10102C0660F771F93
:105730002A95E2F79B01215031098217930731F432
:10574000442309F448C0C5010E947605C101082C14
:1057500001C0880F0A94EAF7982F9095F701868187
:1057600089238683142D1CCFAC01082C02C05595CB
:1057700047950A94E2F79C01215031098223932333
:10578000892B29F540FF23C0F70182819381892B62
:10579000D9F0E98DFA8D27E011922A95E9F70E9458
:1057A0004104282F8B839C8334E03D83F701828161
:1057B0009381782F8887998709811A813C8144E0F9
:1057C0005E816F81892F67DCF7011582BFCFF42FCF
:1057D000F1704F2EBBCF412EB9CF909190048091A4
:1057E0009104981721F036DD511019CF3BCED2DC51
:1057F00010929304109292040E94A205F5CF82E0C9
:105800000E943F0A0CCEA6E0B0E0E9E0FCE20C9476
:1058100000369093F8018093F701811520E29207FA
:1058200030F40E94C6152696E2E00C941C3680EFF8
:1058300089838A830E9441048160682F9C838B83C3
:1058400049815A817C8181E090E097DDECCF0F9314
:105850001F93CF93DF938C01EB0161E072E08C2FFB
:105860000E941C0D892BA1F48091D5039091D60341
:105870000E94610BDD27C750DE4F8881F80112823C
:1058800018828330E9F048F4813059F0823081F099
:10589000DF91CF911F910F9108958430B1F0853041
:1058A000B9F78091010290910202009789F306C036
:1058B0008091030290910402009799F3A4DFE8CF4E
:1058C0008091050290910602F7CF80910702909196
:1058D0000802009799F7209101023091020280910D
:1058E00003029091040221153105F9F2009731F776
:1058F000C901E4CFA6E0B0E0E0E8FCE20C94003699
:105900009093F8018093F701811520E2920730F41B
:105910000E94EC162696E2E00C941C3680EF8983F8
:105920008A830E9441048160682F9C838B83498114
:105930005A817C8181E091E020DDECCFCF93DF9331
:10594000D82FC92FD7DF8091D5039091D6030E941D
:10595000610B8D2F9C2F57DFDF91CF9108950F930F
:105960001F93CF93DF938C01862F61E072E00E943A
:105970001C0D892B99F4C0910102D091020220974D
:1059800069F0F8018281833039F4CE01D7DFCE018E
:10599000D5DFCE01D3DF02C08430D8F7DF91CF91BD
:1059A0001F910F9108950F931F93CF93DF938C0155
:1059B000EB0161E072E08C2F0E941C0D892B09F035
:1059C00059C0FE01FF27D80112968C911297E7501B
:1059D000FE4F8130B9F415969C9192FF02C08083EE
:1059E0000AC090FFFCCF82E08083809103029091F7
:1059F00004020097B9F4809101029091020200978D
:105A0000C9F110C08230A1F515968C9182FD26C097
:105A100080FD0AC083E08083809105029091060298
:105A20000097F1F067DF26C084E080838091070251
:105A3000909108020097B1F78091010290910202C3
:105A40000097E9F07BDF80910302909104020097B8
:105A500049F78091010290910202E4CF85E08083B2
:105A60008091010290910202009721F067DFF1CF4F
:105A700086E08083DF91CF911F910F9108958091EF
:105A8000030290910402BBCFA6E0B0E0EAE4FDE29D
:105A90000C94FE350E9441048C018091CF019091BD
:105AA000D0018017910779F019821A820E9441046F
:105AB000682F49815A81792F80E090E05EDC109355
:105AC000D0010093CF012696E4E00C941A361F9281
:105AD0000F920FB60F9211242F933F934F935F9322
