:100000002BC1000046C1000044C1000042C10000F5
:1000100040C100003EC100003CC100003AC10000E8
:1000200038C1000036C100000C94461B0C94121C11
:100030000C94AA162EC100002CC100002AC1000099
:1000400028C1000026C1000024C1000022C1000018
:1000500020C100000C9430171CC100001AC1000020
:1000600018C1000016C1000014C1000012C1000038
:1000700010C100000EC100000CC100000AC1000048
:1000800008C1000006C1000004C1000002C1000058
:1000900000C10000FEC00000FCC00000FAC000006B
:1000A000F8C00000F6C00000F4C000005F0060006F
:1000B000610054005C005D005E00550059005A006C
:1000C0005B0056006200630058002152680069001E
:1000D0006A006B006C006D006E006F0070007100B4
:1000E00072007300A800AA00A900010014036B00AD
:1000F000650079007000610064003400780034000D
:100100000000080364006500740000000403090493
:1001100009023B00020100A0FA09040000010301EA
:100120000100092111010001224400070581030893
:100130000001090401000103000000092111010070
:100140000122B6000705820320000112010002000F
:10015000000008EDFE442100010102000105010933
:1001600002A10185020901A100050919012908154B
:100170000025019508750181020501093009311535
:1001800081257F95027508810609381581257F959F
:100190000175088106050C0A38021581257F950135
:1001A00075088106C0C005010980A10185031901F8
:1001B0002AB700150126B700950175108100C0050A
:1001C0000C0901A101850419012AA002150126A02C
:1001D00002950175108100C005010906A10185067F
:1001E000050719E029E71500250195087501810229
:1001F0000507190029EF1500250195F07501810209
:1002000005081901290595057501910295017503E8
:100210009101C005010906A101050719E029E715AB
:100220000025019508750181029501750881010578
:1002300007190029FF150026FF00950675088100A3
:10024000050819012905150025019505750191027B
:10025000950175039101C00011241FBECFEFDAE0B4
:10026000DEBFCDBF11E0A0E0B1E0E4E4FDE302C0F9
:1002700005900D92AE38B107D9F722E0AEE8B1E0B3
:1002800001C01D92A938B207E1F70E94F30F0C9448
:10029000611EB6CEE42F8230C0F46430B0F4443036
:1002A000A0F494E0899FA0011124460F511D440F32
:1002B000551F440F551FE40FF52FF11DEE0FFF1FC3
:1002C000E455FF4F85919491089581E090E0089561
:1002D000E1CF089581E00895FDCF0895FBCF089503
:1002E00081E00895F7CF0895F5CF0895FDCF0895E3
:1002F00008950895FDCF089508950895A6E0B0E00B
:10030000E4E8F1E00C94D41D49835A839E83309134
:10031000950189819A81311117C03E81332389F07B
:10032000222379F068D5182F682F89819A8143D5C7
:1003300069817A81812F0E94630D2696E3E00C94F7
:10034000F01D49D5182FF4CF56D569817A81F3CFA6
:10035000FC01262F408151816281738184819581C6
:10036000CDCFCF93DF93D82FC92F61E0F1DF6D2F71
:100370007C2FB2DF882359F061E08D2F9C2FE8DFBE
:100380006D2F7C2FABDF8170DF91CF91089580E0DE
:10039000FACF0F931F93CF93DF93D82FC92F60E02D
:1003A000D7DF8C016D2F7C2FA4DF6D2F7C2FC80130
:1003B000A1DFDF91CF911F910F91089521E030E0EF
:1003C000A90102C0440F551F8A95E2F7CA012BC448
:1003D000CF93C82F81E090E00C2E02C0880F991FA8
:1003E0000A94E2F70E947B0B8C2FE8DFCF910895EF
:1003F00081E00895FDCF0895FBCF0895CF93C82FD6
:10040000C7D38C2FF7DF8C2FF7DF2FEF84E39CE02F
:10041000215080409040E1F700C00000CF91089546
:1004200081E0ECDF0C94541780E0E8DF0C94651752
:100430000F931F93CF93DF93EC018B0153DF811157
:1004400006C080E0DF91CF911F910F910895B80110
:10045000CE014CDF8823A9F3B801CE010E94E81336
:10046000882379F3B801CE010E944710882349F30D
:10047000B801CE010E942110882319F3B801CE01E2
:100480000E94630E8823E9F2F8018581882381F0B8
:10049000CA35FCE7DF07F9F070F4C130ECE7DE079E
:1004A000C1F0C330FCE7DF0791F0C115DC4769F00C
:1004B000C80116DFC7CFCB35ECE7DE0779F0CC35C6
:1004C000DC47B1F70E943C0BF3CFAADFBACF0E9402
:1004D000730BAADFB6CF0E94440BEACF0E94460BF3
:1004E000E7CFCF93DF93D82FC92F61E031DF6D2F96
:1004F0007C2F9EDFDF91CF910895FEDE0E9484164F
:1005000017C018D0FADE0C94881681E0089508957B
:10051000CF93DF93D82FF9DFC82F882311F08D2FC9
:10052000F6DF8C2FDF91CF9108950895F1CF0895D4
:1005300080E0FCCF0E943614F9CFCF930E9436148E
:10054000C82F809190018C1771F0C09390010E9488
:10055000151760939101709392018093930190938A
:1005600094018C2FE3DFCF910895ADE0B0E0EBEB89
:10057000F2E00C94D51D488759876A877B878C8762
:100580009D8791116DD71F8286E0FE013896DE01AE
:10059000119601900D928A95E1F780916F0282FF8A
:1005A00009C01FD7882319F082E00E94160BFFD6DE
:1005B0008111A4D78D8181110CC029813A814B8191
:1005C0005C816D817E818F8172D62D96E2E00C94E4
:1005D000F11DCE010196C5DE8111EFCFF6CFFC01F2
:1005E0008481813019F48081918136C40895662315
:1005F00021F00E94A1110C946C120E94F311FBCF08
:10060000CF93C82F882389F08CEF8C0F813A78F430
:100610008C2F0E94E914882321F08C2F0E948C15C6
:10062000D7D78C2F0E947515D3D7CF91089580E22C
:100630008C0F883040F4C77081E001C0880FCA95E4
:10064000EAF7EFD6F1CF8BE58C0F833038F42C2FFF
:100650002452330BC9010E947814E7CFE8E5EC0F70
:10066000EB3150F4F0E0EE0FFF1FE65EFE4F8081AD
:1006700091810E94A014D9CF83E38C0F8331A8F617
:1006800061E08C2FB4DFD1CF882351F19CEF980F1C
:10069000913A18F40E948C159BC790E2980F9830FD
:1006A00048F4877091E001C0990F8A95EAF7892F85
:1006B000BED6F2CF9BE5980F933020F490E080E017
:1006C0000C94781498E5980F9B3120F490E080E02A
:1006D0000C94A01493E3980F933110F460E087CF4B
:1006E00008951F93CF93DF93182FEB0189DF209795
:1006F00031F4812FC9DFDF91CF911F9108958FE9E8
:100700009FE00197F1F700C000002197F0CF70E063
:1007100060E0893311F460E570E0E3CF882311F0E5
:1007200080D656C70895882311F081D651C7089501
:10073000B0E0A0E0EEE9F3E00C94CD1D6C01D62F03
:10074000C72FFC010581F680F2948FE0F8225FD676
:10075000E82E8823E9F0E02E0023D1F08C2F807F53
:10076000803461F080E28D0F8830F8F08C2F807E2D
:10077000803221F4D230C8F0FF20B9F080916F02AE
:1007800082FF13C082E052D742D691E0E82EE926DC
:100790008C2F82958F70A82EB12C8C3008F054C00D
:1007A000F501ED59F14E0C94BF1DE12CF1CF1C2F3A
:1007B0001F70C07F11F01295107F002381F011236C
:1007C00049F080E28D0F883010F0D11105C0812FE3
:1007D00028D6FED68D2F32C0812F34D6FACF8D2F5A
:1007E00053DF112389F180E28D0F883010F0D11191
:1007F00003C0812F1CD602C0812F2AD6E9D624C07F
:100800001C2F1F70C07FC03211F01295107FDD23A6
:1008100049F0D13009F450C0002309F45BC0FF2037
:1008200039F1D8CF80916F0282FD1EC0002341F0C4
:10083000112319F0812FF5D5CBD680E0E1DE04C07D
:1008400080E022DF1111D5CFF8E0AF1AB10824E023
:10085000A216B10408F04AC10E94361467DECDB773
:10086000DEB7EAE00C94E91D0023A9F0F11003C003
:10087000812F54DFE9CFF1E0FF1203C0812F10D6A2
:10088000E3CF25E0F212E0CF812F48DF812F1ED683
:10089000812FECD5D9CFF11007C0812F44DF812FF4
:1008A00015D6812FEFD5D0CF81E0F812CDCFB6D5B8
:1008B000812309F4C9CFF1CF002329F095E09F15DA
:1008C00008F4C2CFD5CFE4E0EF1508F4BDCF812FF7
:1008D0002ADFBACFFF20D9F3D93349F4FFEF27EE4F
:1008E00083E0F15020408040E1F700C000008D2FF0
:1008F000CBDEAACF8C2F86958695837069F08130E8
:1009000009F0A2CF8D2F9C2F9370011102C080E0BF
:1009100090E00E94A01498CF8D2F9C2F937001110E
:1009200002C080E090E00E9478148ECF602F8D2F5F
:100930005EDE8ACF8C2F837089F5011185CF4D2F14
:10094000429546954770440F440F2D2F2F7030E08D
:10095000042E02C0220F331F0A94E2F790E080E0D9
:10096000D4FF09C08FE090E002C0880F991F4A951C
:10097000E2F780959095C695C695C370822B932B10
:10098000C23041F0C33041F0C13011F055D15CCFDD
:100990004CD15ACF58D158CF46D156CF8695002347
:1009A00011F08C2F8170882309F44ECF4D2F429582
:1009B00046954770440F440F2D2F2F7030E0042EC2
:1009C00002C0220F331F0A94E2F790E080E0D4FFC8
:1009D00009C08FE090E002C0880F991F4A95E2F7A6
:1009E00080959095C695C695C370822B932BC23087
:1009F00041F0C33041F0C13011F079D125CF70D131
:100A000023CF7CD121CF2CD11FCFCF70002321F059
:100A10008C2F3AD18D2F2DCF8D2F85DE8C2F42D16B
:100A200013CFD23F49F160F4D03FB9F0D13F81F00C
:100A3000002309F44BC0F110CDCE8C2F8F7120C054
:100A4000D33F01F1D43FA1F780916F0282FD22C014
:100A50008C2F8F71002319F313C0002341F094E011
:100A60009F1508F4F1CE8C2F8F712CD1EDCEE5E0DF
:100A7000EF1508F4E9CEF7CF8C2F8F710111CFCF8E
:100A800003D1E2CE002321F08C2F8F71F3D0DCCE86
:100A9000EED0DACE002389F0A0D4843031F4BED574
:100AA0008C2F8F71FFD0E12CCFCEF4E063E0FF15E7
:100AB000D0F38C2F8F7199D5F6CF24E02F1518F431
:100AC000ADD564E0F6CF81E0B1D5EDCFFF2059F090
:100AD000D93309F00CCF8FEF97EEE3E081509040CF
:100AE000E040E1F702CF8C2F8F7199CFEE2009F40F
:100AF000B6CE73D480FDB3CEF601158268D4C4D0CF
:100B0000C60117D064D4CED0AACE0F931F93CF9333
:100B1000DF93EC01688179818D81A9D18C01F5D0B9
:100B200081D0B801CE0104DEDF91CF911F910F91EA
:100B30000895CF93DF93EC018C81882381F0CE015F
:100B4000D0DC81110FC063D4882349F08D818823C4
:100B500031F080916F0282FF02C082E067D5DF91A1
:100B6000CF910895CE01D1DFCE0113DCF8CF90E014
:100B700080E00E94781490E080E00E94A01470D47D
:100B800027D50E9484120C946C120E94A315EFCFFB
:100B900056D4FBCF282F92959F70963091F060F439
:100BA000925F9F70923030F481E0203F81F030F40A
:100BB000283E30F080E008959A5FF3CF243FD1F7CC
:100BC000089581E0283EE0F3213FA1F7F9CF089591
:100BD000FC018481882321F0808191813DD1DACF8D
:100BE00080E00895A6E0B0E0E8EFF5E00C94D51DB4
:100BF0002696E2E00C94F11DA7E0B0E0E2E0F6E01A
:100C00000C94D51D2796E2E00C94F11D0895FECFBB
:100C10000895FDCF0895FADFFCDF9093A101809342
:100C2000A00108950895F7CF08952091A001309173
:100C3000A101822B932BEFCF2091A0013091A10134
:100C400082239323E8CF2091A0013091A101822734
:100C50009327E1CFDBCF0895FDCF0895D7CF089537
:100C6000FDDFFADF90939F0180939E01089590E04D
:100C700080E0F6CF21E030E0A90102C0440F551F0B
:100C80008A95E2F7CA01ECCF21E030E002C0220FE2
:100C9000331F8A95E2F780919E0190919F01822BEC
:100CA000932BDECF21E030E002C0220F331F8A9564
:100CB000E2F72095309580919E0190919F018223CB
:100CC0009323CECF21E030E002C0220F331F8A955C
:100CD000E2F780919E0190919F0182279327C0CFD8
:100CE00020919E0130919F01822B932BB9CF2091AF
:100CF0009E0130919F0182239323B2CF20919E01C8
:100D000030919F0182279327ABCF08959B01677095
:100D100091E001C0990F6A95EAF763E0369527954F
:100D20006A95E1F7220F331F220F331FFA01E20FFA
:100D3000F31F50E040E0682F70E08191DF011197D0
:100D40009B01042E02C0369527950A94E2F7217084
:100D500021952827292328272C934F5F5F4F443064
:100D6000510559F708959C01982F977083E03695A7
:100D700027958A95E1F7220F331F220F331FFB01BE
:100D8000E20FF31F50E040E080E0219130E0092EB7
:100D900002C0369527950A94E2F721703327042E76
:100DA00001C0220F0A94EAF7822B4F5F5F4F443055
:100DB000510559F70895282F862F943058F4243080
:100DC00048F434E0939FB0011124620F711D46E98D
:100DD00051E09CCF0895943060F4843050F444E0A6
:100DE000949F9001112466E971E0820F932F911D69
:100DF000BACF80E00895B0E0A0E0E1E0F7E00C9425
:100E0000CE1D8C01E0909E01F0909F018091A00189
:100E10009091A101E82AF92ACFE0D0E0CC24C39434
:100E2000D12CBC2EC6010C2E02C0880F991F0A942B
:100E3000E2F78E219F21892B49F4219790F7B12C5D
:100E40008B2DCDB7DEB7E9E00C94EA1DB8018C2FED
:100E500045D6019791F3F4CFCF93DF93D82FC92FC5
:100E6000CADF6D2F7C2F3AD6DF91CF9108951F9363
:100E7000CF93DF93162FD72F90919501992339F0B7
:100E8000862F972FE9DFDF91CF911F910895882357
:100E900069F0862F972FAFDFC82F682F812F9D2FE6
:100EA0008ADF612F7D2F8C2F19D6EDCF862F972FBC
:100EB00092DFC82FF6CF1F93CF93DF93E091A2016B
:100EC00017E08091A3018E1304C0DF91CF911F9191
:100ED0000895CE2FD0E01E9FF0011124EC55FE4F57
:100EE000208131814281538164817581868184DED4
:100EF000FE013196E770E5CF2091DC013091DD01F4
:100F00004091DE015091DF016091E0017091E101BB
:100F10008091E20171CECF93DF938091E201807FD7
:100F200009F04BC08091E101882309F446C0E091AB
:100F3000A2015091A301C091DD01D091DC0160912B
:100F4000DE017091DF0147E05E17B9F18E2F90E06E
:100F5000E49FF0011124EC55FE4F2481222381F1FE
:100F6000489FF001499FF00D1124DF01AC55BE4FA1
:100F700011962C9111972C1323C02C912D1320C066
:100F800015962C91159721111BC012962D913C910D
:100F9000261B370B283C310598F48091E2018F70B5
:100FA00080618093E201E655FE4F80818F70806101
:100FB00080838CED91E0BDDD7EDFDF91CF910895E0
:100FC000FC013196E770C0CF982FE091A2014091CB
:100FD000A30157E0E41302C080E008952E2F30E013
:100FE0005E9FF0011124EC55FE4F8181681306C00D
:100FF0008081981303C085818111EFCFF90131966B
:10100000E770E8CFADE0B0E0E8E0F8E00C94CB1D8D
:101010008C0186E0F801DE01189601900D928A9508
:10102000E1F7F8018481E5809CEDA92E91E0B92ECD
:101030009091E00191111AC08823A9F0EE2089F067
:10104000C801C6DDF82E882361F087E0F801D501DC
:1010500001900D928A95E1F7C501C1DA5CDF4CDFA2
:1010600059C0C80166DDFF24F39454C0C080D1800C
:1010700082809380F090E1012091DE013091DF01C8
:10108000A401421B530BFF2009F4CCC0483C51057E
:1010900008F09CC0882309F43DC09091DD01809147
:1010A000E201282F207F09F056C0D91214C0909178
:1010B000DC01C91210C0E11048C08F7080618093BC
:1010C000E2011ADF8CED91E034DD8091E201F8015C
:1010D0008683F12C1FC0E11038C06D2D8C2D74DF7C
:1010E0006D2D8C2D71DFE82E8111F3CFC886D98646
:1010F00088859985B1DE292F22952F70903478F458
:101100009F702230A0F09923B1F0F8019681907F72
:1011100091F4FE2C8F2D2D96ECE00C94E71D2A5FA8
:101120002F70223060F0C80104DDEF2CF2CF99233C
:1011300011F0882371F3805E883058F3F4CF803F3C
:1011400040F3815F833028F3EECF8091E20181602C
:101150008093E201BECFD91212C09091DC01C91276
:101160000EC0E1100CC08683C801E3DC87E0F80103
:10117000ACEDB1E001900D928A95E1F770CFC80116
:1011800027DD882309F46DCFEE2009F46ACF809122
:10119000E201803280F02091DC013091DD013A8360
:1011A00029839C828B829091E0019D831E828F8394
:1011B000CE010196BEDC87E0F801ACEDB1E0019014
:1011C0000D928A95E1F7A7DE97DE4DCF9091E2016F
:1011D000292F207F89F4682D9B868A86A6017B852E
:1011E0009E2D00DD8CED91E0A4DC87E0F5011192ED
:1011F0008A95E9F781DE6DCF882309F48BCF809142
:10120000DD018D11BCCF8091DC01C812B8CFE11097
:10121000B6CF9683C8018DDC87E0F50111928A95DF
:10122000E9F778CF483C5105A8F5882309F41BCF8E
:10123000FE2CEE2009F415CF8091DD018D111EC02A
:101240008091DC01C8121AC08091E20180FD0DC0BE
:10125000982F907F51F08683903F09F485CF982F87
:10126000907F905F8F70892B7ECF87E0F801ACED87
:10127000B1E001900D928A95E1F74CCFC801A8DC4E
:10128000811199CF8091E20181608093E201C801D0
:1012900050DC40CF682D9B868A86A6017B859E2DDB
:1012A000A1DC87E0F50111928A95E9F7D8CEAEE08E
:1012B000B0E0EDE5F9E00C94D41D288739874A8722
:1012C0005B876C877D878E87CE0108969BDE88239F
:1012D000A9F06C85662339F0288539854A855B85B8
:1012E0007D858E8589DC17E08091A2019091A30114
:1012F00089133CC02E96E3E00C94F01D87E0FE01BC
:101300003896DE01119601900D928A95E1F74C8591
:10131000442349F32091A30130E0C901019687706D
:1013200099275091A2015817190699F04D8397E01B
:10133000929FD001939FB00D1124AC55BE4FFE017A
:10134000319601900D929A95E1F78093A301B3DD58
:10135000CACF1EDC1092A3011092A20187E0ECED2F
:10136000F1E0DF011D928A95E9F7BDCF819FC001B1
:1013700011248C559E4F46DE882309F4BBCFE091A3
:10138000A2011E9FF0011124EC55FE4F20813181F6
:10139000428153816481758186812EDC8091A20116
:1013A00090E00196877099278093A2019DCF0E94BB
:1013B000091720910E0230910F02AC01421B530B12
:1013C0009A0181E02838334108F480E00895809143
:1013D0000D02869586958695089580910D028770F9
:1013E00008950E94091720910B0230910C02821B74
:1013F000930B8838934148F080910D0282FB882737
:1014000080F991E089278170089580E0FCCF909168
:101410000D02977081E009F480E0089580913B020D
:10142000089590913B02982B90933B020895982F3A
:10143000909580913B02892380933B0208951092FE
:101440003B02089590913A02982B90933A020895A6
:10145000982F909580913A02892380933A020895BB
:1014600010923A0208950895FECF0895982F809122
:101470001002282F2923291721F0892B809310028D
:10148000F3CF089590911002292F282329F08095F9
:10149000892380931002E8CF08950895FECF089520
:1014A000CF93C82F809111028C238C1769F00E9472
:1014B000091790930F0280930E02809111028C2BDA
:1014C000809311028C2FEADFCF9108959091110241
:1014D000292F282379F0809589238093110288236E
:1014E00051F00E94091780930E0290930F02809191
:1014F0001102D4CF089580E090E0F5CF80911102E1
:10150000882341F01092110210920F0210920E02E5
:1015100080E0C4CF0895CF93C0913B0280913A02FE
:10152000C82B80911102882351F041DF8111E6DF41
:1015300080911102C82B0E94C8148111DFDF8C2F0B
:10154000CF910895CF93DF93C0910201D091030111
:10155000E2DF8883C0910201D091030148E050E0AE
:1015600063E072E0CE010E94101E892B59F088E0E2
:10157000FE01A3E0B2E001900D928A95E1F7CE0161
:101580000E944514DF91CF910895CF93DF93C091CE
:101590000001D0910101BFDF8983C0910001D0918A
:1015A000010140E250E063EE71E0CE010E94101EA6
:1015B000892B59F080E2FE01A3EEB1E001900D927B
:1015C0008A95E1F7CE010E945214DF91CF910895E0
:1015D0000E942F14882329F080916E0287FF01C09A
:1015E000D4CFB0CF0895FECF089590916F0292FFAF
:1015F00014C098E0899F90011124622B60930D0222
:1016000043DB0E94091790930C0280930B02809198
:101610000D02869586958695E6CF36CB10920D0203
:1016200010920C0210920B0280E0DDCF90910D021F
:101630008095892380930D02282F277059F48917EC
:1016400049F090916F0292FF05C086958695869528
:1016500029DBE4CF089590916F0292FB222720F9B5
:10166000281749F080FB92F990936F028EE692E082
:1016700046D082E0DBCF089580916F0282FB8827FD
:1016800080F991E08927E7CF81E0E5CF80E0E3CFE3
:1016900060E070E0CB0176C360E070E0CB016CD31A
:1016A000F7CFA3E0B0E0E7E5FBE00C94D51D1DD338
:1016B00028D31B82CE0103963BD381E090E0909328
:1016C000A1018093A00140D31A8219828A8184618A
:1016D0008A83CE01019649D3DFDF2396E2E00C94A2
:1016E000F11DDFCF089513C3089500C3089515C3F6
:1016F000089524C3089528C308952BC3089535C3BE
:10170000089546C30895A6E0B0E0E9E8FBE00C9434
:10171000D31D0E9409178C0180913C0290913D02DB
:101720008017910781F019821A820E940917682F89
:1017300049815A81792F80E090E00E94B502109390
:101740003D0200933C022696E4E00C94EF1D0E94BB
:101750001517609346027093470280934802909356
:101760004902609342027093430280934402909333
:101770004502089508950895FDCF08950895FEDF68
:10178000FBCF0895FECF08950895FEDFFBCF81E6DD
:101790009EE039D4F0DFF3CF81E00895FDCF0895C6
:1017A000FBCF0895089508950895FCDFFCDFFCCF7A
:1017B0009CDF811101C095DF8AE492E098DF8EE61C
:1017C00092E09BDF3CD495DF2EDA80919E019091D0
:1017D0009F0142CA0E94001779D3EADF0E94950256
:1017E000D4CFA6E0B0E0E7EFFBE00C94CC1DD6DF51
:1017F000811108C088DFA9D60E949D022696EBE0E1
:101800000C94E81D75D38EE3A82E82E0B82E7501E6
:1018100010E0F70101917F01812FC5D21F5F1430C5
:1018200009F43DC00817A9F380914A0281FDC1D295
:10183000B7DFC82E00E099249394802FB4D2182FDC
:10184000F50191915F01891729F1D82ED926F12C44
:10185000EE24E3948D2D8E21A9F0CC2099F0F9820D
:101860000A830E9409179C838B839D8291E0812FBC
:101870008E2109F490E049815A816B817C818D81B0
:101880000E94B502F394EE0CF4E0FF12E3CFF501F1
:10189000319710830F5F043081F659DFACCF081306
:1018A000C3CFA8CF1F93CF93DF931AD1EC0181153B
:1018B000924508F05CC0C11580E5D80708F0D9C092
:1018C000C03ED10538F5CD3CD10508F0ABC0C83AD3
:1018D000D10580F4C53AD10508F0A1C0C130D105C9
:1018E00009F440C0CE010497813A9105D8F1D0E0C7
:1018F000C0E038C0CE01885A91094B97C0F7C85A4A
:10190000D0E0CC0FDD1FC05BDE4F0990D881C02D29
:10191000D46428C0C11590E4D907E0F4C11520E2D1
:10192000D20708F0C0C0C83ED105E0F0CE019A95BC
:1019300081159F41E0F68D2F75D1182FCE01992783
:10194000CFD0C12FD0E0DC2FCC27CC27DF71C82B24
:10195000D92B08C0CE019927C3D0CC27DF70C82B64
:10196000D92BD06ACE01DF91CF911F910895C03855
:1019700082E5D807B8F5C03692E5D90708F05BC014
:10198000C03422E5D207C8F4C03282E5D80708F097
:101990004BC02C2F2695269590E2299F900111246B
:1019A0008C2F8370C1E0D0E002C0CC0FDD1F8A9580
:1019B000E2F7C22BD32BDD68D5CF2C2F26952695A9
:1019C000277080E2289F900111248C2F8370C1E042
:1019D000D0E002C0CC0FDD1F8A95E2F7C22BD32BDB
:1019E000DC68C0CFC03C92E5D90760F48C2F8F71C2
:1019F000C03AD245A8F5C82FD0E0DC2FCC27C46F61
:101A0000D06AB0CFCE01805C9245809708F06FCF4E
:101A1000DC2FCC27CC27DF71C06FD06AA3CFA4976F
:101A2000D064A0CFD0659ECFCF71D0E0DC2FCC2783
:101A3000C16FD06A97CF2C2F26952695277080E20C
:101A4000289F900111248C2F8370C1E0D0E002C048
:101A5000CC0FDD1F8A95E2F7C22BD32BDA6882CF39
:101A6000E1D0C82FD0E0DC2FCC27CC27DF71D062AB
:101A700079CF8C2F8F71D6D055E0D695C7955A95D2
:101A8000E1F7CF70D0E0DC2FCC27282F30E084FFA7
:101A900006C044E0220F331F4A95E1F73327C22BDB
:101AA000D32BD0695FCF8D2F8F71BCD0182FCE0173
:101AB000992716D0C12FD0E0DC2FCC27CC27DF719F
:101AC000C82BD92BD4CF462F672F743020F4443045
:101AD00010F40C94680180E090E00895F4DFE2CE09
:101AE000803E9105C1F1C8F48133910509F47DC0B0
:101AF00048F48932910509F46DC08A32910509F4E0
:101B00007BC0089589339105D1F082389105B9F0F1
:101B10008533910509F459C00895843E9105C1F1BA
:101B200038F4823E910521F1833E910531F108950B
:101B3000863E9105C1F1873E9105E1F1089520911E
:101B40006E02237009F065C020916F0223FF14C05C
:101B500089E290E0089520916E0220FD43C030910B
:101B60006F0230FF09C024FF4EC090E080E008956E
:101B700020916E0222FDF7CF089520916E0222FD82
:101B800045C030916F0230FD44C024FFF5CFEDCF4A
:101B900020916F0221FFF0CF80916E0284FDE5CF8E
:101BA00087EE90E0089520916E0223FFE5CF24FD9B
:101BB000DCCFF6CF20916E0223FD2EC030916F0254
:101BC00031FFE3CF84EE90E0089520916E0225FF6F
:101BD000D3CFBECF20916E0225FD21C020916F0290
:101BE00023FFCACF89E390E0C7CF20916E0226FF82
:101BF000C3CF8AE290E0089520916E0226FFBCCF09
:101C000081E390E0089583EE90E0089582EE90E005
:101C1000089580EE90E0089586EE90E0089585E3C3
:101C200090E0089590916E0292FF10C041E0282F3D
:101C30002471243009F040E031E0282F2871283049
:101C400009F030E0431711F02CE0822793FF10C019
:101C500041E0282F2471243109F040E031E0282FA1
:101C60002871283109F030E0431711F02CE0822769
:101C700030916F0230FF10C051E0282F21712130C8
:101C800009F050E041E0282F2871283009F040E0A9
:101C9000541711F029E0822731FF10C041E0282FAE
:101CA0002171213109F040E031E0282F28712831DD
:101CB00009F030E0431711F029E0822794FD877E78
:101CC000089580E00895CF939C01FB01805E9245CA
:101CD000C1E0809738F4C581C11104C0822F8F7193
:101CE0000E94E8018C2FCF910895089590E080E044
:101CF0000E942E1E9C0181E0233E3E4F09F080E0B1
:101D0000089563EE7EEF90E080E00C944D1E6FEF3F
:101D10007FEF90E080E00C944D1ECF93DF93EC01B9
:101D200082E090E00E94261E8883DF91CF91089583
:101D3000FC01608182E090E00C94331E83E090E02F
:101D40000E94261E90E00895682F83E090E00C9496
:101D5000331ECF93DF93EC0184E090E00E942E1EAF
:101D600099838883DF91CF910895FC01608171810F
:101D700084E090E00C944D1EAB01BC018FE090E03C
:101D80000C94451EAB01BC0183E190E00C94451E10
:101D9000682F8EE090E00C94331E0895FECF0895D6
:101DA0000895FECF0895E82FF0E0EC58FD4F8081B4
:101DB0000895089580EA8A95F1F7089500C008957E
:101DC000F9CF0895F894E82FE295EF70F0E041A183
:101DD0008F7021E030E0B90102C0660F771F8A954D
:101DE000E2F7CB01962F9095942391A392A1892B92
:101DF00082A37894089584E9E5DF86E6E3DF87E946
:101E0000E1DF86ECDFDF84EFDDDF85EFDBDF86EF10
:101E1000D9DF87EFD7CFB0E0A0E0E1E1FFE00C949D
:101E2000CF1DEC01D62E062F10E0C80186579E4F1D
:101E30007C01FC0120812F3F09F441C0F894E22F7E
:101E4000E295EF70F0E031A12F7081E090E001C0E9
:101E5000880F2A95EAF7932F982B91A392A180954A
:101E6000892382A37894AADFE6E8F1E031E0C12C6F
:101E700021912F3F49F1A22FA295AF70B0E090962B
:101E80008C9190E02F7002C0959587952A95E2F786
:101E900080FD1AC0832FC82A330F81E0EA38F80783
:101EA00039F7F70180818F3F09F08CDF61E0C110C5
:101EB00001C060E08D2D84DFC00FD11FC882CDB777
:101EC000DEB7E8E00C94EB1D80E0E5CF94DF84E022
:101ED000E4E7F2E0DF01982F1D929A95E9F7E0E739
:101EE000F2E0DF011D928A95E9F784E03CD056CFFD
:101EF000A4E0B0E0EEE7FFE00C94D41D1A82198252
:101F00001C821B8210E0612FCE01019684DF1F5FCF
:101F10001430C9F744E050E0BE016F5F7F4F80E7A7
:101F200092E00E94101EAC0121E0892B09F420E010
:101F3000452B61F089819A81AB81BC8180937002CD
:101F400090937102A0937202B093730244E064E72D
:101F500072E080E792E008D0182F23DF812F2496CB
:101F6000E3E00C94F01D0895B0E0A0E0EAEBFFE0A0
:101F70000C94CF1DD82EE92EF62ED72F042FC22F6A
:101F8000222371F081E080934D0243D790934C025D
:101F900080934B0280E0CDB7DEB7E8E00C94EB1DF8
:101FA000C0904D02CC20B1F380914B0290914C0235
:101FB000C1D6059778F310E0A8016D2D7E2D8F2DE9
:101FC0009D2F0E94101E892B41F0A8016D2D7E2DA2
:101FD0008F2D9D2F0E941D1ECC2D10924D028C2FF7
:101FE000DACFFFCB0895AFD60E949A18D0DB0E94BB
:101FF000B218F0DB0E94BB180E94BE18F2DF0E94EC
:10200000D418D3DBF9CF90938F0180938E0108957C
:102010006ACB089580E0C7DE8170089569DF2FEFF5
:1020200086E791E0215080409040E1F700C0000039
:102030005FDFF0DF882311F0EBDF36C70895EECFC6
:102040000895CF93DF93EB0186319C47F1F4E6D9F5
:102050009D81992389F08A7A91E009F490E0909328
:102060004E02811107C089E240D5B2DA80E0DF91EB
:10207000CF91089585E3F8CF80914E02811103C07E
:1020800089E24AD5F2CF85E3FCCF81E0F0CFCF9350
:10209000DF93EC01FB018581882309F4CBC09E010D
:1020A00030572332310508F0ABC08EE692E025DBD5
:1020B000FE01E150F047E232F10520F4E159F14E22
:1020C0000C94BF1D80916E02816080936E0292C05D
:1020D00080916F02886080936F028CC080916E0245
:1020E0008260F3CF80916E028460EFCF80916E02A8
:1020F0008860EBCF80916F028160EDCF80916F029D
:102100008260E9CF80916E028061DFCF80916E02A4
:102110008062DBCF80916E028064D7CF0E94C805B9
:1021200080916E028068D1CF80916E028C60CDCF9D
:1021300080916F028360CFCF80916E028E7FC5CF7A
:1021400080916F02877FC7CF80916E028D7FBDCF58
:1021500080916E028B7FB9CF80916E02877FB5CF61
:1021600080916F028E7FB7CF80916F028D7FB3CF4A
:1021700080916E028F7EA9CF80916E028F7DA5CF58
:1021800080916E028F7BA1CF0E94C80580916E0264
:102190008F779BCF80916E02837F97CF80916F0264
:1021A0008C7F99CF80916E0282FB992790F921E074
:1021B000922790FB82F990FB83F987CF80916F0281
:1021C000982F909591708E7F892B90FB81F983CF0A
:1021D00090916E02892F8F7B96FF806476CF0E944C
:1021E000C80590916E02892F97FB87F980586DCFB3
:1021F00081E087DA8EE692E082DA0E94C80580E00C
:10220000DF91CF91089580E0F4CF90916E02892FF5
:102210008F7E94FF806159CF90916E02892F8E7FBF
:1022200090FF816052CF90916F02892F877F93FF3B
:10223000886051CF81E0E4CF282F35EB2303C00124
:10224000112497FF04C080589109892F0895805860
:102250009F4FFBCF8091550280FF0DC06091090117
:1022600070E0660F771F6038710570F561157105B4
:1022700069F1862F089581FF07C06091090184E00C
:10228000689FB0011124EFCF6091090182FD0AC05F
:10229000809154028823A9F02091080160910901DE
:1022A000821710F088E0ECCF869FC001112433E044
:1022B000880F991F3A95E1F7622F70E00E94AC1DDC
:1022C000D2CF68E070E0D5CF8FE7089581E0089520
:1022D0008091550280FF0CC06091050170E07595FA
:1022E0006795759567956115710549F1862F089574
:1022F00081FF06C06091050170E075956795F3CF89
:102300006091050182FD0BC0909153029923A1F0C9
:102310006091040180910501961738F0682F70E0F4
:102320006038710500F38FE70895899FC00111247B
:1023300070E00E94AC1DF4CF61E070E0D7CF81E087
:1023400008958D3C29F486DF819580935902089584
:102350008E3C11F47FDFF9CF8F3C29F47BDF819530
:10236000809358020895803D11F474DFF9CF893DC0
:1023700021F4AEDF80935A0208958A3D19F4A8DF54
:102380008195F8CF8B3D29F4A3DF819580935B0283
:1023900008958C3D11F49CDFF9CF9FE2980F98309F
:1023A00070F4815D990B21E030E001C0220F8A9525
:1023B000EAF780915702822B8093570208958D3D52
:1023C00031F48091550281608093550208958E3DCD
:1023D00021F4809155028260F7CF8F3DB9F780914B
:1023E00055028460F1CF409158028D3C59F48091A0
:1023F000590287FF0DC01092590241110BC0109273
:10240000540208C08E3C81F48091590218169CF346
:10241000442381F080915A0290915B02892B09F04C
:102420005AC01092530208958F3C49F447FFF0CFF1
:1024300010925802809159028111ECCFE0CF803D7B
:1024400019F41416ACF3E4CF90915A02893D29F4A3
:102450001916F4F610925A02DBCF8A3D19F497FF51
:10246000D7CFF8CF90915B028B3D29F497FFD0CF67
:1024700010925B02CDCF8C3D19F41916CCF3C8CF66
:102480009FE2980F983090F4815D990B21E030E045
:10249000B90102C0660F771F8A95E2F7CB018095DC
:1024A00090915702892380935702B2CF8D3D31F42A
:1024B000809155028E7F80935502AACF8E3D21F4E4
:1024C000809155028D7FF7CF8F3D09F0A1CF80918C
:1024D00055028B7FF0CF08959CD420915802309103
:1024E0005902232B21F080935102909352022091A4
:1024F0005A0230915B02232B21F080934F0290937C
:10250000500286E592E0E1C186E0E6E5F2E0DF0117
:102510001D928A95E9F7109254021092530210927C
:1025200055020895FC01828181110DC083818111C2
:102530000AC08481811107C081E09581911101C099
:1025400080E08170089581E0FCCFA6E0B0E0EBEA86
:10255000F2E10C94D41D86E0E6E5F2E0DE0111968E
:1025600001900D928A95E1F710925802109259024B
:1025700010925A0210925B028B819C81892B81F010
:102580008091510290915202D5D39C0180915402C6
:102590008823A9F190910A019217130608F43CC010
:1025A0008D819E81892B89F080914F0290915002FC
:1025B000C1D39C0180915302882309F463C0909198
:1025C00006019217130608F46BC0BE016F5F7F4FC0
:1025D00086E592E0D1D2811104C086E592E0A2DFC7
:1025E00081117ADF86E0FE013196A6E5B2E0019026
:1025F0000D928A95E1F72696E3E00C94F01D409148
:102600000B019AE0499FA00111244217530740F69D
:102610008F5F8093540202C08F3FD1F71B8111233B
:1026200051F018DE9FEF11160CF491E0899F802D78
:102630001124809358021C81112351F00BDE9FEF6F
:1026400011160CF491E0899F802D1124809359027A
:1026500080915802882309F4A3CF109159021123C5
:1026600009F49ECFE9DD882349F080935802812F39
:10267000E3DD882329F08093590292CF81E0F5CFE2
:1026800081E0F9CF409107019AE0499FA001112410
:102690004217530708F099CF8F5F8093530202C00F
:1026A0008F3FD1F71D81112351F012DE9FEF1116DC
:1026B0000CF491E0899F802D112480935A021E8191
:1026C000112351F005DE9FEF11160CF491E0899F64
:1026D000802D112480935B0280915A02882309F493
:1026E00074CF10915B02112309F46FCFA5DD88230D
:1026F00049F080935A02812F9FDD882329F080932F
:102700005B0263CF81E0F5CF81E0F9CF0F931F9398
:10271000CF93DF93C42FD22FFC0185818823C1F092
:1027200040935E0276D390935D0280935C0280E2D8
:102730008C0F883040F4C77081E001C0880FCA95C3
:10274000EAF70E948E03DF91CF911F910F910895B8
:1027500010915E02141331C080915C0290915D0271
:10276000E9D2883C910548F5C0E2CD0F1D17B9F0BC
:1027700080E2810F883040F4177081E001C0880F3B
:102780001A95EAF70E949303C83048F481E09D2F20
:10279000977001C0880F9A95EAF70E948E03802FE8
:1027A0000E948703C83078F6D77081E001C0880F97
:1027B000DA95EAF70E949303C6CF80E28C0F883047
:1027C00010F6C77081E001C0880FCA95EAF7F2CF12
:1027D0000F93FC01CB01E851FC47E730F10588F588
:1027E000EF56F14E0C94BF1D06E221EE41EE6AE178
:1027F0007CE78CDF80E00F91089507E225EE45EE3F
:102800006BE17CE7F6CF06E221EE40EE68E17CE783
:10281000F0CF07E225EE44EE69E17CE7EACF06E27D
:1028200021EE42EE6CE17CE7E4CF07E225EE46EED6
:102830006DE17CE7DECF08E221E045EE6EE17CE76A
:10284000D8CFFB018581882319F010925E02D3CF87
:1028500081E0D1CF909364028093630208951FD2E8
:10286000982F81E0913009F080E00895E0916302B3
:10287000F0916402309739F00190F081E02D3097AB
:1028800011F00995089580E00895E0916302F091B8
:102890006402309731F00280F381E02D309709F027
:1028A00009950895DC01E0916302F091640230978C
:1028B00059F084819581892B39F086E08C930480CE
:1028C000F581E02DCD0109950895DC01E0916302C9
:1028D000F0916402309759F086819781892B39F005
:1028E00082E08C930680F781E02DCD010995089553
:1028F000A3E0B0E0EEE7F4E10C94D51D9C018091DB
:1029000061029091620282179307B1F030936202E4
:1029100020936102E0916302F0916402309761F0CC
:102920000084F185E02D309739F083E089833B8383
:102930002A83CE01019609952396E2E00C94F11DBD
:10294000A3E0B0E0E6EAF4E10C94D51D9C0180918F
:102950005F029091600282179307B1F0309360029A
:1029600020935F02E0916302F0916402309761F07E
:102970000084F185E02D309739F084E089833B8332
:102980002A83CE01019609952396E2E00C94F11D6D
:10299000CF93DF93C0910201D091030122965FDFB4
:1029A000882381F080916E0287FF0CC0C0910001E6
:1029B000D091010122969EE180E0915028F4DF91B0
:1029C000CF91089596E0F8CF29912223B1F38F5F3C
:1029D000F4CFCF93C82F882319F141DF882319F151
:1029E00080916E0287FF1FC0EC2FE695E695E69575
:1029F000C03FB0F48091000190910101E80FF92FE0
:102A0000F11D228130E0C77081E090E002C0880FA4
:102A1000991FCA95E2F72823392381E0232B09F473
:102A200080E0CF9108958091020190910301FC0113
:102A30003296089621912C1721F0E817F907D1F763
:102A4000EFCF81E0EECF9C01FC0132968FEF90E05A
:102A50004191461751F08F3F19F4411101C0892F60
:102A60009F5F9630A9F78F3F09F40895280F311D15
:102A700087FD3A95F901628308959C01FC01329625
:102A8000285F3F4F8191861303C0DF0111971C928D
:102A9000E217F307B9F70895E62FE695E695E69570
:102AA000603F68F4E80FF92FF11D677021E030E016
:102AB00001C0220F6A95EAF78281822B82830895F2
:102AC000E62FE695E695E695603F70F4E80FF92F5E
:102AD000F11D677081E090E001C0880F6A95EAF708
:102AE00080959281892382830895CF93C82FB7DE82
:102AF0006C2F882359F080916E0287FF07C0809168
:102B0000000190910101C8DFCF91089580910201E9
:102B10009091030198DFF8CFCF93C82FA0DE6C2FE0
:102B2000882359F080916E0287FF07C080910001D1
:102B300090910101C5DFCF9108958091020190919C
:102B400003019BDFF8CF8BDE882379F080916E0242
:102B500087FF0BC0E0910001F091010132968EE1F8
:102B6000DF011D928A95E9F70895E0910201F09145
:102B70000301329686E0F4CFDC01FB0111969C91B3
:102B800011978181981322C012968C9112978823F5
:102B900019F0928189131AC013968C911397882388
:102BA00019F09381891312C015968C91159788237B
:102BB00019F0958189130AC014969C91992321F0EC
:102BC00081E02481291303C080E001C081E081708D
:102BD00008950895FECF0895A4E0B0E0E1EFF5E197
:102BE000E4C7811111C081E080930F0180910C0135
:102BF00090910D01A0910E01B0910F01BC01CD018A
:102C0000E9DF2496E2E0EDC782E0EECFA4E0B0E099
:102C1000EBE0F6E1CAC783E080930F0180910C01DD
:102C200090910D01A0910E01B0910F01BC01CD0159
:102C3000D1DF2496E2E0D5C7CFCF0895A4E0B0E07D
:102C4000E3E2F6E1B2C781E080930F0180910C01CD
:102C500090910D01A0910E01B0910F01BC01CD0129
:102C6000B9DF2496E2E0BDC7E9CF0895A4E0B0E063
:102C7000EBE3F6E19AC791E0811101C090E09093F7
:102C80000E0180910C0190910D01A0910E01B09167
:102C90000F01BC01CD019EDF2496E2E0A2C7809126
:102CA0000E010895A4E0B0E0E7E5F6E17EC7809369
:102CB0000D0180910C0190910D01A0910E01B09138
:102CC0000F01BC01CD0186DF2496E2E08AC7809126
:102CD0000D010895A4E0B0E0EFE6F6E166C7809349
:102CE0000C0180910C0190910D01A0910E01B09109
:102CF0000F01BC01CD016EDF2496E2E072C7809126
:102D00000C01089508950895FECF0895089508953B
:102D1000F9CF0895CF93FADFEBD8F9DFC0E08C2F1D
:102D200042D8811105C0CF5FC430C9F7CF91089553
:102D300081E0FCCFCF93DF93EC016BD08C1B9D0B1C
:102D4000DF91CF91089585B7806885BF85B780688A
:102D500085BF08951F921FB61F9211248F939F93D2
:102D6000AF93BF9380916502811113C08091780267
:102D700090917902A0917A02B0917B024196A11DB7
:102D8000B11D8093780290937902A0937A02B09358
:102D90007B02BF91AF919F918F911F901FBE1F909B
:102DA000189580918002843031F10E947D0210924A
:102DB000650288E190E020E40FB6F894A89580932E
:102DC00060000FBE2093600083B7817F846083BF63
:102DD00083B7816083BF7894889583B78E7F83BFE4
:102DE0000FB6F894A8958091600088618093600088
:102DF000109260000FBE08950E94C8050C948102D5
:102E000082E084BD93E095BD9AEF97BD80936E00FC
:102E100008952FB7F8948091780290917902A0914B
:102E20007A02B0917B022FBF0895A4E0B0E0EAE1FE
:102E3000F7E1BBC68FB7F894209178023091790200
:102E400040917A0250917B0229833A834B835C83C1
:102E50008FBF69817A818B819C812496E2E0C1C613
:102E600078941F921FB61F9211248F939F93AF9354
:102E7000BF938091780290917902A0917A02B091EB
:102E80007B020196A11DB11D809378029093790277
:102E9000A0937A02B0937B02BF91AF919F918F91E3
:102EA0001F901FBE1F90189587E797E79093010822
:102EB0008093000888E19AE00FB6F894A895809373
:102EC00060000FBE90936000FFCF88E19AE00FB6DC
:102ED000F894A895809360000FBE90936000FFCF98
:102EE000282FCB01BA01309180023430D9F42F70F1
:102EF0002093E9002FEF3091E800215035FD06C006
:102F000035ED3A95F1F700002111F5CF2091E80059
:102F100025FF08C050E040E0BED18091E8008E77E8
:102F20008093E8000895BC0143E050E082E0D8CFF0
:102F3000BC0146E050E082E0D3CFBC0140E250E06B
:102F400082E0CECFCF93DF93D82FC92FA8DE48E001
:102F500050E06D2F7C2F81E0C3DF88E0ED2FFC2F48
:102F6000A6E6B2E001900D928A95E1F7DF91CF914C
:102F7000089580917F02811107C013D36AD3809195
:102F8000E20084608093E200089510927F02089529
:102F900055DE81E06BCE60917C0281E0611101C061
:102FA00080E034CE9091800281E0943009F080E09E
:102FB00060917C0241CE42E061EC81E06ED242E25F
:102FC00061EC82E06AD29091800281E0943009F055
:102FD00080E060917C0200CE80918202893081F194
:102FE00048F4823009F496C0833009F457C0813028
:102FF00041F008958A3009F480C08B3009F468C02C
:10300000089580918102813A09F047C08091E800DB
:10301000877F8093E8008091850290918602892BBA
:1030200059F468E086E692E070E082D18091E80091
:103030008B778093E800089560E090E080E0F4CF23
:1030400080918102813249F58091850290918602BA
:10305000029718F58091E800877F8093E8008091BF
:10306000E80082FF16C09091F3008091F200029771
:1030700031F48091F100813011F0863019F48091A3
:10308000F10010DE8091E8008B778093E80039D260
:1030900004C0809180028111E2CF08958091810265
:1030A000813AD9F78091850290918602892BA9F700
:1030B0008091E800877F8093E8008091E80080FF9E
:1030C000FCCFEDDD8093F1008091E8008E77DDCFBD
:1030D00080918102813209F7809185029091860268
:1030E000892BD9F68091E800877F8093E80009D288
:1030F00080918302BBDD0C94C805809181028132EE
:1031000061F68091E800877F8093E800FAD1809192
:103110008402E0CD80918102813A09F0BECF809196
:10312000E800877F8093E8008091E80080FFFCCF73
:10313000E6DDC8CF84B7877F84BF0FB6F894A89523
:1031400080916000886180936000109260000FBEE3
:1031500080E890E00FB6F89480936100909361004E
:103160000FBE82CD1ED275D2E2EEF0E08081846087
:1031700080837894D7C480E191E06CCB8091800209
:10318000853029F480918002853011F035CE089584
:1031900008DEC0DD8823B1F380917E02882391F39D
:1031A00064D00E94C805EECF08959A01409187022D
:1031B0005091880200C0AC01CB01D901252F3327E3
:1031C00023303105D1F070F42130310509F43EC0CF
:1031D0002230310569F48BE390E020E131E02D935A
:1031E0003C93089521323105E9F02232310521F175
:1031F00090E080E030E020E0F2CFCA019927413032
:1032000059F08230910559F0ECE0F1E0892B81F71B
:10321000849190E09F01E3CFE2E0F1E0F9CFECEEA2
:10322000F0E0F6CF892BB9F06130710509F789E03C
:1032300090E02BE331E0D3CF892B91F06130710521
:10324000B9F686EB90E02DE531E0C9CF82E190E060
:103250002BE431E0C4CF89E090E022E231E0BFCF3F
:1032600084E490E023E132E0BACF80E189BD82E1DD
:1032700089BD09B400FEFDCF8091D8008F7D809379
:10328000D8008091E00082608093E0008091E000AF
:1032900081FDFCCF0895AF92BF92CF92DF92FF9253
:1032A0000F931F93CF93DF936C01EB018A0148D1F9
:1032B000F82E811123C00115110539F0F801808124
:1032C0009181C81BD90BC80ED91EB12CA12C2097F7
:1032D000A9F08091E80085FD21C08091E8008E77FB
:1032E0008093E80001151105A1F0F801808191811A
:1032F000A80EB91EB182A08285E0F82E8F2DDF9135
:10330000CF911F910F91FF90DF90CF90BF90AF9022
:10331000089516D18823D9F2F82EF0CFF6018191C5
:103320006F018093F1002197FFEFAF1ABF0ACFCF53
:10333000FC01CB01209187023091880226173707C4
:1033400090F0009729F42091E8002E772093E80070
:1033500040E0009751F4411108C08091E80082FFDD
:1033600031C080E00895C901F3CF2091800222236B
:10337000A9F12530A9F12091E80023FD2DC020916D
:10338000E80022FDEACF2091E80020FFE2CF309153
:10339000F3002091F200009719F02830310558F021
:1033A00041E02830310509F040E02091E8002E7717
:1033B0002093E800CECF41914093F10001972F5F19
:1033C0003F4FE9CF80918002882341F0853041F062
:1033D0008091E80083FFC1CF81E0089582E00895E5
:1033E00083E00895FC01CB0120918702309188028F
:1033F0002617370790F0009729F42091E8002E77E0
:103400002093E80040E0009751F4411108C08091FA
:10341000E80082FF32C080E00895C901F3CF209117
:1034200080022223B1F12530B1F12091E80023FD83
:103430002EC02091E80022FDEACF2091E80020FF75
:10344000E2CF3091F3002091F200009719F028307C
:10345000310558F041E02830310509F040E0209175
:10346000E8002E772093E800CECF44914093F100FE
:10347000319601972F5F3F4FE8CF809180028823DC
:1034800041F0853041F08091E80083FFC0CF81E0BA
:10349000089582E0089583E00895982F973028F0EA
:1034A0008F708093E90081E008959093E900242FC4
:1034B000762F50E0981731F07091EC002091ED00DC
:1034C0005091F00021FD02C09F5FE8CF3091EB00EA
:1034D0003E7F3093EB003091ED003D7F3093ED0067
:1034E0003091EB0031603093EB007093EC0020934F
:1034F000ED005093F0002091EE0027FDE5CF80E035
:1035000008958091810287FF13C08091E80082FFB7
:1035100006C08091E8008B778093E80004C080911A
:1035200080028111F2CF0895809180028823D9F31F
:103530008091E80080FFF8CF8091E8008E77ECCF93
:103540002091E4003091E50095E6A9012091EC007E
:10355000822F817020FF06C08091E80080FF06C0A6
:1035600080E008952091E80022FD1AC08091800239
:10357000882389F0853089F08091EB0085FD0FC0AC
:103580002091E4003091E50042175307F9F2915081
:10359000E1F684E0089582E0089583E0089581E0F3
:1035A000089567D06ED0E0EEF0E080818160808386
:1035B000E8EDF0E080818F77808319BCA7EDB0E063
:1035C0008C918E7F8C9380818F7E808310927F027E
:1035D00008950F931F93CF93DF934BD052D0C8ED34
:1035E000D0E088818F77888388818068888388810C
:1035F0008F7D888319BC1092800210927C021092F9
:103600007E0210927D0200EE10E0F80180818B7F37
:10361000808388818160888342E060E080E03DDFD4
:10362000E1EEF0E080818E7F8083E2EEF0E0808149
:1036300081608083808188608083F80180818E7FB3
:103640008083888180618883DF91CF911F910F9162
:103650000895E8EDF0E080818F7E8083E7EDF0E073
:1036600080818160808384E082BF81E080937F02DB
:10367000B0CFE8EDF0E080818E7F80831092E20091
:1036800008951092DA001092E10008951F920F92AF
:103690000FB60F9211242F933F934F935F936F9325
:1036A0007F938F939F93AF93BF93EF93FF938091FB
:1036B000E10082FF0AC08091E20082FF06C0809193
:1036C000E1008B7F8093E1002CD28091DA0080FFB3
:1036D00018C08091D80080FF14C08091DA008E7FDE
:1036E0008093DA008091D90080FF8FC080E189BD8E
:1036F00082E189BD09B400FEFDCF81E080938002A4
:1037000038DC8091E10080FF18C08091E20080FFEA
:1037100014C08091E2008E7F8093E2008091E200ED
:1037200080618093E2008091D80080628093D8000D
:1037300019BC85E0809380022EDC8091E10084FF3B
:1037400028C08091E20084FF24C080E189BD82E12D
:1037500089BD09B400FEFDCF8091D8008F7D809394
:10376000D8008091E1008F7E8093E1008091E2009B
:103770008F7E8093E2008091E20081608093E2007E
:1037800080917C02882309F445C084E08093800204
:1037900009DC8091E10083FF27C08091E20083FF74
:1037A00023C08091E100877F8093E10082E08093D5
:1037B000800210927C028091E1008E7F8093E10074
:1037C0008091E2008E7F8093E2008091E200806130
:1037D0008093E20042E060E080E05FDE8091F000F4
:1037E00088608093F000D4DBFF91EF91BF91AF919F
:1037F0009F918F917F916F915F914F913F912F9109
:103800000F900FBE0F901F90189519BC1092800258
:10381000BCDB77CF8091E30087FD02C081E0B6CFAB
:1038200083E0B4CF1F920F920FB60F9211242F9303
:103830003F934F935F936F937F938F939F93AF9338
:10384000BF93CF93DF93EF93FF93D091E900DF70A5
:103850008091EC00C82FC17080FDC0E81092E90093
:103860008091F000877F8093F00078941ED01092B2
:10387000E9008091F00088608093F000CD2BCF703C
:10388000C093E900FF91EF91DF91CF91BF91AF918C
:103890009F918F917F916F915F914F913F912F9168
:1038A0000F900FBE0F901F901895AAE2B0E0EAE5C6
:1038B000FCE17AC181E892E0FC0101962091F100DF
:1038C000208322E089389207B9F786DB8091E800EF
:1038D00083FF16C180918102909182029A3008F094
:1038E0000FC1E92FF0E0E856F14E49C1803899F058
:1038F000823809F005C1809185028F70873008F009
:10390000FFC08093E9008091EB0085FB882780F958
:103910001092E90006C080917D0290917E02911183
:1039200082609091E800977F9093E8008093F10087
:103930001092F1008091E8008E77DFC0882309F4AF
:10394000CDC0823009F0DCC0809183028111D0C0EB
:10395000809185028F702FEF280F263008F0D0C09D
:103960008093E9002091EB0020FFC2C0933031F436
:103970008091EB0080628093EB00BAC09091EB00E5
:1039800090619093EB0021E030E001C0220F8A9516
:10399000EAF72093EA001092EA008091EB00886039
:1039A000EACF8111ADC0109183021F778091E300AF
:1039B0008078812B8093E3008091E800877F80935B
:1039C000E8009FDD8091E80080FFFCCF8091E3005C
:1039D00080688093E30082E0111183E0809380028D
:1039E0008FC08058823008F08BC080918302909104
:1039F00084028C3D23E0920799F583E08A838AE272
:103A000089834FB7F894DE01139620E03EE051E23F
:103A1000E32FF0E050935700E49120FF03C0E295BC
:103A2000EF703F5FEF708E2F90E0EA30B8F0C796EE
:103A30008D939D932F5F243159F74FBF8091E800FC
:103A4000877F8093E8006AE270E0CE01019670DC27
:103A50008091E8008B778093E80052C0C096E8CF51
:103A60006091850270918602AE014F5F5F4F9DDBD2
:103A7000BC01892B09F444C08091E800877F8093C2
:103A8000E80089819A81AEDCE3CF8038C9F5809166
:103A9000E800877F8093E80080917C028093F100AA
:103AA00049CF81112DC090918302923048F58091C9
:103AB000E800877F8093E80090937C0222DD80916C
:103AC0007C02882311F084E005C08091E30087FD2B
:103AD000FACF81E0809380026EDA12C08091830277
:103AE000813071F481E0933009F080E080937E02B0
:103AF0001092E9008091E800877F8093E80001DD63
:103B00008091E80083FF0AC08091E800877F80935E
:103B1000E8008091EB0080628093EB00AA96E3E0DE
:103B20005FC00895CF9380918002882399F0C0915F
:103B3000E900CF709091EC00892F817090FD80E8B2
:103B4000C82B1092E9008091E80083FDAEDECF70B3
:103B5000C093E900CF91089597FB072E16F40094C7
:103B600006D077FD08D048D007FC05D03EF49095EC
:103B700081959F4F0895709561957F4F0895EE0F41
:103B8000FF1F0590F491E02D09942F923F924F92E0
:103B90005F926F927F928F929F92AF92BF92CF92DD
:103BA000DF92EF92FF920F931F93CF93DF93CDB7E6
:103BB000DEB7CA1BDB0B0FB6F894DEBF0FBECDBF5E
:103BC00009942A88398848885F846E847D848C842F
:103BD0009B84AA84B984C884DF80EE80FD800C8138
:103BE0001B81AA81B981CE0FD11D0FB6F894DEBF1B
:103BF0000FBECDBFED010895AA1BBB1B51E107C04D
:103C0000AA1FBB1FA617B70710F0A61BB70B881F6C
:103C1000991F5A95A9F780959095BC01CD010895FB
:103C2000FB01DC0104C08D910190801921F4415009
:103C30005040C8F7881B990B0895FB01DC0102C0B6
:103C400001900D9241505040D8F70895F999FECF58
:103C500092BD81BDF89A992780B50895A8E1B0E09A
:103C600042E050E020C0262FF999FECF92BD81BDE1
:103C7000F89A019700B4021639F01FBA20BD0FB6AA
:103C8000F894FA9AF99A0FBE08950396272FECDF5D
:103C9000EADF252FE9DF242FE7CF0196272FE4DF86
:103CA000E2CFDC01CB01FC01F999FECF06C0F2BDE9
:103CB000E1BDF89A319600B40D9241505040B8F7EA
:103CC0000895F894FFCFD703D703000400047A04C3
:103CD0009604240424049A040505110511059C107A
:103CE0000C11A4106E107210A8107610AC10B81041
:103CF000821005118610BC108A10C010E8108E10BA
:103D0000C410EF109410CA10D2107A10B0107E10A8
:103D1000B4109810CE10DE10F81003116810A01027
:103D2000131103140914F413FD130F1415141B14A9
:103D3000761C9E1C801D9E1C801DD11CF11C801DAC
:043D4000451D511DAF
:103D440012023202280850011E0A14010000010068
:103D54006716A2179D1798179317E200E900EA0067
:103D6400B500B600B700CD008301CC008A019201F2
:103D740094012102230224022502260227022A0298
:103D8400B300B4006F0070009F01CB019F02A0023A
:103D9400E200E900EA00B500B600B700CD008301F7
:103DA400CC008A01920194012102230224022502FB
:103DB400260227022A02B300B4006F0070009F019C
:0E3DC400CB019F02A002F4F5F6F7946697C6B5
:00000001FF
